:020000040800F2
:1000000000500020B54E0008C1490008CD49000845
:10001000D3490008D9490008DF4900080000000062
:10002000000000000000000000000000E54900089A
:10003000F149000800000000FD490008094A0008D5
:10004000FD4E0008FD4E0008FD4E0008FD4E000864
:10005000FD4E0008FD4E0008FD4E0008FD4E000854
:10006000FD4E0008FD4E0008FD4E0008FD4E000844
:10007000FD4E0008FD4E0008154B0008294B0008F6
:10008000FD4E0008FD4E0008FD4E0008FD4E000824
:10009000FD4E0008FD4E0008FD4E0008FD4E000814
:1000A000FD4E0008FD4E0008FD4E0008FD4E000804
:1000B000FD4E0008FD4E00083D4B0008FD4E0008B7
:1000C000FD4E0008FD4E0008FD4E0008FD4E0008E4
:1000D000FD4E0008514B0008654B0008FD4E00081E
:1000E000794B0008FD4E0008FD4E0008000000009E
:1000F0000000000000000000000000000000000000
:0C01000000000000000000005FF808F1A3
:10010C0010B5054C237833B9044B13B10448AFF345
:10011C0000800123237010BD580200200000000055
:10012C007C61000808B5034B1BB103490348AFF3CE
:10013C00008008BD000000005C0200207C6100080B
:10014C00034613F8012B002AFBD1181A013870470B
:10015C0080B500AF084B1B68074A43F010031360CF
:10016C00032000F01FF9002000F008F804F0AEFAAC
:10017C000023184680BD00BF0020024080B582B02D
:10018C0000AF7860124B1A68124B1B7819464FF46B
:10019C007A73B3FBF1F3B2FBF3F3184600F037F9C3
:1001AC000346002B01D001230EE07B680F2B0AD8ED
:1001BC00002279684FF0FF3000F0FFF8064A7B68A8
:1001CC001360002300E0012318460837BD4680BDAC
:1001DC0084000020040000200000002080B400AF48
:1001EC00054B1B781A46054B1B681344034A1360D6
:1001FC0000BFBD4680BC7047040000209C0200205C
:10020C0080B400AF024B1B681846BD4680BC7047DB
:10021C009C02002080B485B000AF78607B6803F04E
:10022C000703FB600C4BDB68BB60BA684FF6FF033F
:10023C001340BB60FB681A02BB68134343F0BF63F7
:10024C0043F40033BB60044ABB68D36000BF14376F
:10025C00BD4680BC704700BF00ED00E080B400AF2D
:10026C00044BDB681B0A03F007031846BD4680BC31
:10027C00704700BF00ED00E080B483B000AF0346D0
:10028C00FB71FB7903F01F02064997F907305B09F4
:10029C00012000FA02F241F8232000BF0C37BD46C2
:1002AC0080BC704700E100E080B483B000AF03462F
:1002BC003960FB7197F90730002B0BDA3B68DAB227
:1002CC000C49FB7903F00F03043B1201D2B20B442F
:1002DC001A7609E03B68DAB2074997F90730120140
:1002EC00D2B20B4483F8002300BF0C37BD4680BC50
:1002FC00704700BF00ED00E000E100E080B489B081
:10030C0000AFF860B9607A60FB6803F00703FB612B
:10031C00FB69C3F10703042B28BF0423BB61FB69F2
:10032C000433062B02D9FB69033B00E000237B61FD
:10033C004FF0FF32BB6902FA03F3DA43BB681A4091
:10034C007B699A404FF0FF317B6901FA03F3D94383
:10035C007B680B40134318462437BD4680BC70475E
:10036C0080B582B000AF78607B68013BB3F1807FD1
:10037C0001D301230FE00A4A7B68013B53600F2134
:10038C004FF0FF30FFF790FF054B00229A60044BB3
:10039C0007221A60002318460837BD4680BD00BFEF
:1003AC0010E000E080B582B000AF78607868FFF7AD
:1003BC0031FF00BF0837BD4680BD80B586B000AFA9
:1003CC000346B9607A60FB7300237B61FFF746FF3D
:1003DC0078617A68B9687869FFF790FF024697F9F7
:1003EC000F3011461846FFF75FFF00BF1837BD46A8
:1003FC0080BD80B582B000AF0346FB7197F9073022
:10040C001846FFF739FF00BF0837BD4680BD80B5E1
:10041C0082B000AF78607868FFF7A2FF03461846F9
:10042C000837BD4680BD000080B483B000AF786053
:10043C007B68042B06D1094B1B68084A43F0040364
:10044C00136005E0054B1B68044A23F0040313609A
:10045C0000BF0C37BD4680BC704700BF10E000E009
:10046C0080B500AF00F002F800BF80BD80B400AFD3
:10047C0000BFBD4680BC704780B485B000AF7860CB
:10048C000023FB607B68002B01D101234FE07B68CC
:10049C001B681A46284B1344284AA2FB03231B094A
:1004AC009A007B681A647B68254ADA637B680222AF
:1004BC0083F821207B681B681B68FB60FB6823F4B6
:1004CC007F5323F03003FB607B685A687B689B6822
:1004DC001A437B68DB681A437B681B691A437B6889
:1004EC005B691A437B689B691A437B68DB6913431E
:1004FC00FA681343FB607B681B68FA681A607B68B8
:10050C0000229A627B680022DA627B6800221A63FE
:10051C007B6800225A637B6800229A637B68012205
:10052C0083F821207B68002283F8202000231846C2
:10053C001437BD4680BC7047F8FFFDBFCDCCCCCC8A
:10054C000000024080B586B000AFF860B9607A60F8
:10055C003B600023FB75FB6893F82030012B01D125
:10056C0002234AE0FB68012283F82020FB6893F801
:10057C002130012B3AD1FB68022283F82120FB6841
:10058C0000229A63FB681B681A68FB681B6822F0E0
:10059C0001021A603B687A68B968F86800F0AEF935
:1005AC00FB68DB6A002B08D0FB681B681A68FB68C9
:1005BC001B6842F00E021A600FE0FB681B681A6899
:1005CC00FB681B6822F004021A60FB681B681A683F
:1005DC00FB681B6842F00A021A60FB681B681A6809
:1005EC00FB681B6842F001021A6005E0FB68002200
:1005FC0083F820200223FB75FB7D18461837BD4677
:10060C0080BD000080B584B000AF78600023FB7320
:10061C007B6893F82130022B05D07B6804229A6307
:10062C000123FB7351E07B681B681A687B681B68AD
:10063C0022F00E021A607B681B681A687B681B68C4
:10064C0022F001021A607B681B68224A934229D06F
:10065C007B681B68204A934222D07B681B681F4A28
:10066C0093421AD07B681B681D4A934212D07B6858
:10067C001B681C4A93420AD07B681B681A4A934237
:10068C0002D14FF480130EE04FF080730BE04FF467
:10069C00803308E04FF4805305E04FF4807302E0A0
:1006AC00102300E00123114A53607B68012283F878
:1006BC0021207B68002283F820207B685B6B002B59
:1006CC0003D07B685B6B78689847FB7B18461037C8
:1006DC00BD4680BD080002401C00024030000240B4
:1006EC0044000240580002406C00024000000240EE
:1006FC0080B584B000AF78607B68DB6B1B68FB60F7
:10070C007B681B681B68BB607B681B6C04229A406F
:10071C00FB681340002B4FD0BB6803F00403002B85
:10072C004AD07B681B681B6803F02003002B07D1A1
:10073C007B681B681A687B681B6822F004021A60CD
:10074C007B681B68664A934229D07B681B68654AA4
:10075C00934222D07B681B68634A93421AD07B6811
:10076C001B68624A934212D07B681B68604A9342B2
:10077C000AD07B681B685F4A934202D14FF4800316
:10078C000EE04FF080630BE04FF4802308E04FF451
:10079C00804305E04FF4806302E0402300E0042333
:1007AC00554A53607B68DB6A002B00F094807B68B1
:1007BC00DB6A786898478EE07B681B6C02229A4053
:1007CC00FB681340002B56D0BB6803F00203002BD0
:1007DC0051D07B681B681B6803F02003002B0BD1E6
:1007EC007B681B681A687B681B6822F00A021A6017
:1007FC007B68012283F821207B681B68384A93426E
:10080C0029D07B681B68374A934222D07B681B68CF
:10081C00354A93421AD07B681B68344A934212D0F3
:10082C007B681B68324A93420AD07B681B68314A4A
:10083C00934202D14FF400130EE04FF000730BE023
:10084C004FF4003308E04FF4005305E04FF400730D
:10085C0002E0202300E00223274A53607B68002239
:10086C0083F820207B689B6A002B34D07B689B6AC2
:10087C00786898472FE07B681B6C08229A40FB68CD
:10088C001340002B28D0BB6803F00803002B23D0A7
:10089C007B681B681A687B681B6822F00E021A6062
:1008AC007B681A6C7B68DB6B012101FA02F25A60DF
:1008BC007B6801229A637B68012283F821207B6884
:1008CC00002283F820207B681B6B002B04D07B68F4
:1008DC001B6B7868984700BF00BF1037BD4680BDC2
:1008EC00080002401C00024030000240440002405C
:1008FC00580002406C0002400000024080B485B0F9
:10090C0000AFF860B9607A603B60FB681A6CFB68FA
:10091C00DB6B012101FA02F25A60FB681B683A6832
:10092C005A60FB685B68102B08D1FB681B687A68FF
:10093C009A60FB681B68BA68DA6007E0FB681B68A2
:10094C00BA689A60FB681B687A68DA6000BF143773
:10095C00BD4680BC70470000F0B587B000AFF860B2
:10096C00B960C7E900230123FB750023BB75002385
:10097C007B752F4B1B7E012B01D1022354E02C4B9A
:10098C0001221A764CF2503000F0A8F80346FB75A1
:10099C00FB7D002B44D1FB68012B02D101237B751D
:1009AC0007E0FB68022B02D102237B7501E00423D4
:1009BC007B750023BB752DE0BB7D5A00BB6802EB39
:1009CC00030CBB7D1901D7E90023C1F12006A1F16D
:1009DC00200022FA01F403FA06F6344323FA00F05D
:1009EC00044323FA01F5A3B21946604600F05AF805
:1009FC004CF2503000F072F80346FB750D4B1B693E
:100A0C000C4A23F001031361FB7D002B07D1BB7D46
:100A1C000133BB75BA7D7B7D9A42CDD300E000BF1C
:100A2C00034B00221A76FB7D18461C37BD46F0BDE1
:100A3C00A00200200020024080B483B000AF00234D
:100A4C00FB710D4B1B6903F08003002B0DD00A4B7F
:100A5C000A4A5A60084B0A4A5A60074B1B6903F052
:100A6C008003002B01D00123FB71FB7918460C3756
:100A7C00BD4680BC704700BF002002402301674583
:100A8C00AB89EFCD80B400AF054B1B69044A43F032
:100A9C008003136100231846BD4680BC704700BF1D
:100AAC000020024080B483B000AF78600B467B809E
:100ABC00084B0022DA61084B1B69074A43F001031B
:100ACC0013617B687A881A8000BF0C37BD4680BCE6
:100ADC00704700BFA00200200020024080B584B007
:100AEC0000AF7860FFF78CFBF86010E07B68B3F127
:100AFC00FF3F0CD07B68002B07D0FFF781FB024631
:100B0C00FB68D31A7A689A4201D2032325E0154B6D
:100B1C00DB6803F00103002BE8D1124BDB6803F018
:100B2C002003002B02D00F4B2022DA600D4BDB6828
:100B3C0003F01003002B0BD10A4BDB6903F001030C
:100B4C00002B05D1074BDB6803F00403002B03D00B
:100B5C0000F00AF8012300E0002318461037BD46C8
:100B6C0080BD00BF0020024080B483B000AF0023E2
:100B7C007B60234BDB6803F01003002B09D0214B67
:100B8C00DB6943F002031F4AD3617B6843F0100317
:100B9C007B601B4BDB6803F00403002B09D0194B63
:100BAC00DB6943F00103174AD3617B6843F004030C
:100BBC007B60134BDB6903F00103002B0BD0114B53
:100BCC00DB6943F004030F4AD3610D4BDB690C4A1C
:100BDC0023F00103D3617B6840F20112934206D1EA
:100BEC00074BDB69064A23F00103D36102E0044A98
:100BFC007B68D36000BF0C37BD4680BC704700BF1C
:100C0C0000200240A002002080B584B000AF7860C4
:100C1C0039600123FB730023BB602F4B1B7E012B20
:100C2C0001D1022353E02C4B01221A767B681B68FE
:100C3C00022B16D14CF25030FFF750FF0346002B1D
:100C4C0041D1012000F04CF84CF25030FFF746FF38
:100C5C000346FB73214B1B69204A23F004031361E9
:100C6C0031E04CF25030FFF739FF0346002B2AD10C
:100C7C003B684FF0FF321A607B689B68BB6019E0E1
:100C8C00B86800F049F84CF25030FFF727FF0346E4
:100C9C00FB73124B1B69114A23F002031361FB7B9C
:100CAC00002B03D03B68BA681A600CE0BB6803F5F4
:100CBC008063BB607B68DB689A027B689B6813442B
:100CCC00BA689A42DCD3044B00221A76FB7B184696
:100CDC001037BD4680BD00BFA0020020002002409E
:100CEC0080B483B000AF7860094B0022DA61094B05
:100CFC001B69084A43F004031361064B1B69054A40
:100D0C0043F04003136100BF0C37BD4680BC7047F5
:100D1C00A00200200020024080B483B000AF7860B5
:100D2C000B4B0022DA610B4B1B690A4A43F002039E
:100D3C001361084A7B685361064B1B69054A43F0F3
:100D4C004003136100BF0C37BD4680BC704700BF29
:100D5C00A00200200020024080B48BB000AF78606D
:100D6C0039600023FB610023BB6100237B610023FE
:100D7C003B6200233B6100237B6227E101227B6AFB
:100D8C0002FA03F3FB613B681B68FA691340BB6111
:100D9C00BA69FB699A4240F016813B685B68122B7A
:100DAC0034D0122B0DD8022B2BD0022B04D8002BB5
:100DBC0031D0012B1CD048E0032B43D0112B1BD07E
:100DCC0043E0874A934226D0854A934206D8854A07
:100DDC00934220D0844A93421DD036E0834A9342FA
:100DEC0019D0834A934216D0824A934213D02CE0F6
:100DFC003B68DB683B6228E03B68DB6804333B62A2
:100E0C0023E03B68DB6808333B621EE03B68DB6831
:100E1C000C333B6219E03B689B68002B02D1042326
:100E2C003B6212E03B689B68012B05D108233B62B7
:100E3C007B68FA691A6108E008233B627B68FA69EF
:100E4C005A6102E000233B6200BFBB69FF2B01D853
:100E5C007B6801E07B680433FB60BB69FF2B02D825
:100E6C007B6A9B0002E07B6A083B9B003B61FB6852
:100E7C001A680F213B6901FA03F3DB431A40396A04
:100E8C003B6901FA03F31A43FB681A603B685B6821
:100E9C0003F08053002B00F09680574B9B69564A09
:100EAC0043F001039361544B9B6903F00103BB6056
:100EBC00BB68524A7B6A9B08023352F823307B6131
:100ECC007B6A03F003039B000F2202FA03F3DB435C
:100EDC007A6913407B617B68494A934213D07B68E3
:100EEC00484A93420DD07B68474A934207D07B68AF
:100EFC00464A934201D1032306E0042304E0022373
:100F0C0002E0012300E000237A6A02F0030292005F
:100F1C0093407A6913437B6138497B6A9B0802339F
:100F2C007A6941F823203B685B6803F48033002B1B
:100F3C0006D0374B1A683649BB6913430B6006E081
:100F4C00334B1A68BB69DB43314913400B603B6878
:100F5C005B6803F40033002B06D02D4B5A682C49E8
:100F6C00BB6913434B6006E0294B5A68BB69DB43F2
:100F7C00274913404B603B685B6803F48013002BDC
:100F8C0006D0234B9A682249BB6913438B6006E059
:100F9C001F4B9A68BB69DB431D4913408B603B6850
:100FAC005B6803F40013002B06D0194BDA68184960
:100FBC00BB691343CB6006E0154BDA68BB69DB43B6
:100FCC0013491340CB607B6A01337B627B6A0F2B26
:100FDC007FF6D4AE00BF2C37BD4680BC704700BF37
:100FEC000000211000001110000012100000311040
:100FFC0000003210000022100010024000000140DE
:10100C0000080140000C0140001001400014014098
:10101C000004014080B582B000AF0346FB80084B52
:10102C005A69FB881340002B06D0054AFB88536194
:10103C00FB88184600F006F800BF0837BD4680BD97
:10104C000004014080B483B000AF0346FB8000BFB6
:10105C000C37BD4680BC704780B586B000AF786059
:10106C0000233B617B681B6803F00103002B00F03D
:10107C008780924B5B6803F00C03042B0CD08F4BD6
:10108C005B6803F00C03082B12D18C4B5B6803F4E8
:10109C008033B3F5803F0BD1884B1B6803F40033CE
:1010AC00002B6CD07B685B68002B68D101232DE290
:1010BC007B685B68B3F5803F06D1804B1B687F4A29
:1010CC0043F4803313602EE07B685B68002B0CD1FB
:1010DC007A4B1B68794A23F480331360774B1B6877
:1010EC00764A23F4802313601DE07B685B68B3F5BC
:1010FC00A02F0CD1714B1B68704A43F480231360F2
:10110C006E4B1B686D4A43F4803313600BE06B4BE2
:10111C001B686A4A23F480331360684B1B68674A68
:10112C0023F4802313607B685B68002B13D0FFF7DC
:10113C0067F8386108E0FFF763F802463B69D31A99
:10114C00642B01D90323E1E15C4B1B6803F40033EE
:10115C00002BF0D014E0FFF753F8386108E0FFF7EC
:10116C004FF802463B69D31A642B01D90323CDE116
:10117C00524B1B6803F40033002BF0D100E000BF8E
:10118C007B681B6803F00203002B63D04B4B5B683E
:10119C0003F00C03002B0BD0484B5B6803F00C03E3
:1011AC00082B1CD1454B5B6803F48033002B16D104
:1011BC00424B1B6803F00203002B05D07B681B69B4
:1011CC00012B01D00123A1E13C4B1B6823F0F80259
:1011DC007B685B69DB00394913430B603AE07B6841
:1011EC001B69002B20D0364B01221A60FFF708F840
:1011FC00386108E0FFF704F802463B69D31A022B6A
:10120C0001D9032382E12D4B1B6803F00203002B51
:10121C00F0D02A4B1B6823F0F8027B685B69DB007B
:10122C00264913430B6015E0254B00221A60FEF78C
:10123C00E7FF386108E0FEF7E3FF02463B69D31A8B
:10124C00022B01D9032361E11C4B1B6803F0020341
:10125C00002BF0D17B681B6803F00803002B39D0FE
:10126C007B689B69002B19D0164B01221A60FEF784
:10127C00C7FF386108E0FEF7C3FF02463B69D31A8B
:10128C00022B01D9032341E10C4B5B6A03F00203EF
:10129C00002BF0D0012000F0CBFA1BE0094B002210
:1012AC001A60FEF7ADFF38610EE0FEF7A9FF0246AB
:1012BC003B69D31A022B07D9032327E10010024004
:1012CC000000424280044242924B5B6A03F00203EC
:1012DC00002BEAD17B681B6803F00403002B00F0A1
:1012EC00A6800023FB758B4BDB6903F08053002B2E
:1012FC000DD1884BDB69874A43F08053D361854B12
:10130C00DB6903F08053FB60FB680123FB75824BA8
:10131C001B6803F48073002B18D17F4B1B687E4A2B
:10132C0043F480731360FEF76BFF386108E0FEF73F
:10133C0067FF02463B69D31A642B01D90323E5E00E
:10134C00754B1B6803F48073002BF0D07B68DB6853
:10135C00012B06D16F4B1B6A6E4A43F001031362DB
:10136C002DE07B68DB68002B0CD16A4B1B6A694A49
:10137C0023F001031362674B1B6A664A23F00403D4
:10138C0013621CE07B68DB68052B0CD1614B1B6A7C
:10139C00604A43F0040313625E4B1B6A5D4A43F0E0
:1013AC00010313620BE05B4B1B6A5A4A23F00103E7
:1013BC001362584B1B6A574A23F0040313627B6871
:1013CC00DB68002B15D0FEF71BFF38610AE0FEF737
:1013DC0017FF02463B69D31A41F28832934201D976
:1013EC00032393E04B4B1B6A03F00203002BEED05C
:1013FC0014E0FEF705FF38610AE0FEF701FF024634
:10140C003B69D31A41F28832934201D903237DE020
:10141C00404B1B6A03F00203002BEED1FB7D012B2A
:10142C0005D13C4BDB693B4A23F08053D3617B688D
:10143C00DB69002B69D0374B5B6803F00C03082B7E
:10144C0061D07B68DB69022B46D1344B00221A60D9
:10145C00FEF7D6FE386108E0FEF7D2FE02463B6985
:10146C00D31A022B01D9032350E02A4B1B6803F03B
:10147C000073002BF0D17B681B6AB3F5803F08D159
:10148C00244B5B6823F400327B689B68214913432F
:10149C004B60204B5B6823F474127B68196A7B6881
:1014AC005B6A0B431B4913434B601C4B01221A60B4
:1014BC00FEF7A6FE386108E0FEF7A2FE02463B6985
:1014CC00D31A022B01D9032320E0124B1B6803F023
:1014DC000073002BF0D018E0104B00221A60FEF7BE
:1014EC008FFE386108E0FEF78BFE02463B69D31A8B
:1014FC00022B01D9032309E0064B1B6803F0007390
:10150C00002BF0D101E0012300E00023184618372E
:10151C00BD4680BD00100240007000406000424299
:10152C0080B584B000AF786039600023FB60724BEB
:10153C001B6803F007033A689A4210D96E4B1B687C
:10154C0023F007026C493B6813430B606A4B1B6822
:10155C0003F007033A689A4201D00123C8E07B6884
:10156C001B6803F00203002B08D0644B5B6823F06C
:10157C00F0027B689B68614913434B607B681B6876
:10158C0003F00103002B6AD07B685B68012B07D149
:10159C005A4B1B6803F40033002B15D10123A7E031
:1015AC007B685B68022B07D1544B1B6803F00073FC
:1015BC00002B09D101239BE0504B1B6803F0020365
:1015CC00002B01D1012393E04C4B5B6823F0030209
:1015DC007B685B68494913434B60FEF711FEF8606A
:1015EC007B685B68012B12D10AE0FEF709FE02460C
:1015FC00FB68D31A41F28832934201D9032377E076
:10160C003E4B5B6803F00C03042BEED127E07B68A8
:10161C005B68022B1DD10AE0FEF7F2FD0246FB6867
:10162C00D31A41F28832934201D9032360E0334B41
:10163C005B6803F00C03082BEED110E0FEF7E0FD25
:10164C000246FB68D31A41F28832934201D9032334
:10165C004EE02A4B5B6803F00C03002BEED1264BBB
:10166C001B6803F007033A689A4210D2224B1B689E
:10167C0023F0070220493B6813430B601E4B1B6889
:10168C0003F007033A689A4201D0012330E07B68EB
:10169C001B6803F00403002B08D0184B5B6823F481
:1016AC00E0627B68DB68154913434B607B681B6801
:1016BC0003F00803002B09D0104B5B6823F4605235
:1016CC007B681B69DB000D4913434B6000F01CF871
:1016DC0001460A4B5B681B0903F00F03084AD35CF5
:1016EC0021FA03F3074A13600020FEF747FD00239D
:1016FC0018461037BD4680BD002002400010024045
:10170C007C6400088400002090B48AB000AF2A4B9F
:10171C003C1D0FCB84E80F00284B1B883B8000231B
:10172C00FB610023BB6100237B6200237B610023F0
:10173C003B62234B5B68FB61FB6903F00C03042BDE
:10174C0002D0082B03D02DE01E4B3B622DE0FB6931
:10175C009B0C03F00F0307F12802134413F8243CED
:10176C007B61FB6903F48033002B13D0144B5B6853
:10177C005B0C03F0010307F12802134413F8283C17
:10178C00BB617B690F4A02FB03F2BB69B2FBF3F34B
:10179C007B6204E07B690C4A02FB03F37B627B6A8D
:1017AC003B6202E0074B3B6200BF3B6A184628379E
:1017BC00BD4690BC704700BF94610008A46100084E
:1017CC000010024000127A0000093D0080B400AF06
:1017DC00024B1B681846BD4680BC70478400002035
:1017EC0080B500AFFFF7F2FF0146054B5B681B0AA3
:1017FC0003F00703034AD35C21FA03F3184680BDB8
:10180C00001002408C64000880B500AFFFF7DEFFCB
:10181C000146054B5B68DB0A03F00703034AD35C04
:10182C0021FA03F3184680BD001002408C640008B6
:10183C0080B485B000AF78600A4B1B680A4AA2FBE3
:10184C0003235B0A7A6802FB03F3FB6000BFFB68AF
:10185C005A1EFA60002BF9D100BF1437BD4680BC6C
:10186C00704700BF84000020D34D621080B58AB051
:10187C0002AFF860B9603B601346FB800023BB618C
:10188C000023FB77FB6893F85030012B01D1022326
:10189C0025E1FB68012283F85020FEF7B1FCB8610A
:1018AC00FB6893F85130DBB2012B02D00223FB779B
:1018BC000CE1BB68002B02D0FB88002B02D101236A
:1018CC00FB7703E1FB68032283F85120FB680022BD
:1018DC005A65FB68BA681A63FB68FA889A86FB68D3
:1018EC00FA88DA86FB6800229A63FB6800229A87E2
:1018FC00FB680022DA87FB6800225A64FB6800222E
:10190C001A64FB689B68B3F5004F07D1FB681B6832
:10191C001A68FB681B6842F480421A60FB681B68FB
:10192C001B6803F04003402B07D0FB681B681A6848
:10193C00FB681B6842F040021A60FB68DB68B3F579
:10194C00006F47D1FB685B68002B04D0FB68DB8E13
:10195C009BB2012B38D1BB681A88FB681B68DA6014
:10196C00BB680233BB60FB68DB8E9BB2013B9AB257
:10197C00FB68DA8628E0FB681B689B6803F00203AF
:10198C00022B0FD1BB681A88FB681B68DA60BB6836
:10199C000233BB60FB68DB8E9BB2013B9AB2FB68E7
:1019AC00DA8611E03B68002B0BD03B68B3F1FF3FAC
:1019BC000AD0FEF725FC0246BB69D31A3A689A4254
:1019CC0002D80323FB7781E0FB68DB8E9BB2002BF4
:1019DC00D1D148E0FB685B68002B04D0FB68DB8E40
:1019EC009BB2012B3AD1FB681B680C33BA68127896
:1019FC001A70BB680133BB60FB68DB8E9BB2013B8A
:101A0C009AB2FB68DA8629E0FB681B689B6803F0D6
:101A1C000203022B10D1FB681B680C33BA681278D6
:101A2C001A70BB680133BB60FB68DB8E9BB2013B59
:101A3C009AB2FB68DA8611E03B68002B0BD03B684E
:101A4C00B3F1FF3F0AD0FEF7DBFB0246BB69D31AAA
:101A5C003A689A4202D80323FB7737E0FB68DB8EA7
:101A6C009BB2002BD0D1BB6900933B6801220221B1
:101A7C00F86800F038F80346002B02D00323FB77FC
:101A8C0024E0BA693968F86800F096F80346002B30
:101A9C0005D00123FB77FB6820225A6516E0FB6812
:101AAC009B68002B0AD100237B61FB681B68DB68F9
:101ABC007B61FB681B689B687B617B69FB685B6D6A
:101ACC00002B02D00123FB7700E000BFFB68012252
:101ADC0083F85120FB68002283F85020FB7F1846C6
:101AEC002037BD4680BD80B584B000AFF860B960CA
:101AFC007A603B604DE03B68B3F1FF3F49D03B68F7
:101B0C00002B07D0FEF77CFB0246BB69D31A3A6860
:101B1C009A423ED8FB681B685A68FB681B6822F027
:101B2C00E0025A60FB685B68B3F5827F11D1FB68F9
:101B3C009B68B3F5004F04D0FB689B68B3F5806FCE
:101B4C0007D1FB681B681A68FB681B6822F040020F
:101B5C001A60FB689B6AB3F5005F10D1FB681B68C9
:101B6C001968FB681A684DF6FF730B401360FB682D
:101B7C001B681A68FB681B6842F400521A60FB6809
:101B8C00012283F85120FB68002283F850200323A4
:101B9C000EE0FB681B689A68BB681340BA689A42EF
:101BAC0001D1012200E000227B689A42A3D10023DC
:101BBC0018461037BD4680BD80B586B002AFF860C0
:101BCC00B9607A607B680093BB6800228021F8685A
:101BDC00FFF789FF0346002B07D0FB685B6D43F0D2
:101BEC002002FB685A65032300E0002318461037D7
:101BFC00BD4680BD80B582B000AF78607B68002B9D
:101C0C0001D1012357E07B6800229A627B6893F82C
:101C1C005130DBB2002B02D1786802F0B5FD7B6845
:101C2C00022283F851207B681B681A687B681B684A
:101C3C0022F040021A607B685A687B689B681A43E2
:101C4C007B68DB681A437B681B691A437B685B699A
:101C5C001A437B689B6903F400731A437B68DB6946
:101C6C001A437B681B6A42EA03017B689A6A7B68A9
:101C7C001B680A431A607B689B691B0C03F0040108
:101C8C007B685A6A7B681B680A435A607B681B68CE
:101C9C007A68D26A1A617B681B68DA697B681B6890
:101CAC0022F40062DA617B6800225A657B680122AB
:101CBC0083F85120002318460837BD4680BD80B5F7
:101CCC0082B000AF78607B68002B01D101231DE04E
:101CDC007B6893F83D30DBB2002B06D17B68002289
:101CEC0083F83C20786802F07BFD7B68022283F845
:101CFC003D207B681A687B6804331946104600F057
:101D0C002BFA7B68012283F83D2000231846083704
:101D1C00BD4680BD80B483B000AF78607B681B6823
:101D2C00DA687B681B6842F00102DA607B681B682A
:101D3C001A687B681B6842F001021A60002318467F
:101D4C000C37BD4680BC704780B582B000AF786060
:101D5C007B681B681B6903F00203022B22D17B6892
:101D6C001B68DB6803F00203022B1BD17B681B682A
:101D7C006FF002021A617B6801221A777B681B687C
:101D8C009B6903F00303002B03D0786800F0C8F9BB
:101D9C0005E0786800F0BBF9786800F0CAF97B6858
:101DAC0000221A777B681B681B6903F00403042B61
:101DBC0022D17B681B68DB6803F00403042B1BD166
:101DCC007B681B686FF004021A617B6802221A7729
:101DDC007B681B689B6903F44073002B03D0786805
:101DEC0000F09EF905E0786800F091F9786800F051
:101DFC00A0F97B6800221A777B681B681B6903F0CB
:101E0C000803082B22D17B681B68DB6803F00803EE
:101E1C00082B1BD17B681B686FF008021A617B686A
:101E2C0004221A777B681B68DB6903F00303002B21
:101E3C0003D0786800F074F905E0786800F067F971
:101E4C00786800F076F97B6800221A777B681B684B
:101E5C001B6903F01003102B22D17B681B68DB6815
:101E6C0003F01003102B1BD17B681B686FF0100262
:101E7C001A617B6808221A777B681B68DB6903F49C
:101E8C004073002B03D0786800F04AF905E07868BD
:101E9C0000F03DF9786800F04CF97B6800221A7765
:101EAC007B681B681B6903F00103012B0ED17B6857
:101EBC001B68DB6803F00103012B07D17B681B68EF
:101ECC006FF001021A61786802F0CAFB7B681B682C
:101EDC001B6903F08003802B0ED17B681B68DB68C9
:101EEC0003F08003802B07D17B681B686FF08002A6
:101EFC001A61786800F088FA7B681B681B6903F02C
:101F0C004003402B0ED17B681B68DB6803F0400359
:101F1C00402B07D17B681B686FF040021A61786810
:101F2C0000F010F97B681B681B6903F02003202B61
:101F3C000ED17B681B68DB6803F02003202B07D1D4
:101F4C007B681B686FF020021A61786800F053FA06
:101F5C0000BF0837BD4680BD80B584B000AF786047
:101F6C0039600023FB607B6893F83C30012B01D176
:101F7C000223C8E07B68012283F83C207B680222A4
:101F8C0083F83D207B681B689B68FB60FB6823F033
:101F9C007703FB60FB6823F47F43FB607B681B6863
:101FAC00FA689A603B681B68402B77D0402B0ED8A0
:101FBC00102B00F08A80102B02D8002B7ED099E0D9
:101FCC00202B00F08980302B00F08D8092E0702B5C
:101FDC0016D0702B04D8502B40D0602B4ED089E0FB
:101FEC00B3F5805F03D0B3F5005F24D082E07B684B
:101FFC001B689A687B681B6822F007029A6079E07C
:10200C007B6818683B6899683B685A683B68DB6872
:10201C0000F08CF97B681B689B68FB60FB6823F005
:10202C007703FB60FB6843F07703FB607B681B68FE
:10203C00FA689A605EE07B6818683B6899683B6850
:10204C005A683B68DB6800F071F97B681B689A681A
:10205C007B681B6842F480429A604BE07B6818688E
:10206C003B6859683B68DB681A4600F0DBF87B6814
:10207C001B685021184600F03AF93BE07B68186861
:10208C003B6859683B68DB681A4600F0FDF87B68D2
:10209C001B686021184600F02AF92BE07B68186851
:1020AC003B6859683B68DB681A4600F0BBF87B68F4
:1020BC001B684021184600F01AF91BE07B681B686E
:1020CC000021184600F013F914E07B681B681021FE
:1020DC00184600F00CF90DE07B681B6820211846AF
:1020EC0000F005F906E07B681B683021184600F00B
:1020FC00FEF800BF7B68012283F83D207B6800223C
:10210C0083F83C20002318461037BD4680BD80B4B0
:10211C0083B000AF786000BF0C37BD4680BC704701
:10212C0080B483B000AF786000BF0C37BD4680BC74
:10213C00704780B483B000AF786000BF0C37BD46E9
:10214C0080BC704780B483B000AF786000BF0C37A0
:10215C00BD4680BC7047000080B485B000AF78608D
:10216C0039600023FB607B681B68FB607B682A4A34
:10217C0093420BD07B68B3F1804F07D07B68274A22
:10218C00934203D07B68264A934208D1FB6823F024
:10219C007003FB603B685B68FA681343FB607B6809
:1021AC001D4A93420BD07B68B3F1804F07D07B68FC
:1021BC001A4A934203D07B68194A934208D1FB68B0
:1021CC0023F44073FB603B68DB68FA681343FB60E5
:1021DC00FB6823F08003FB603B685B69FA68134380
:1021EC00FB607B68FA681A603B689A687B68DA6205
:1021FC003B681A687B689A627B68074A934203D1F2
:10220C003B681A697B681A637B6801225A6100BFBC
:10221C001437BD4680BC7047002C014000040040C0
:10222C000008004080B487B000AFF860B9607A60F5
:10223C0000237B6100233B61FB681B6A3B61FB68ED
:10224C001B6A23F00102FB681A62FB689B697B61C5
:10225C007B6923F0F0037B617B681B017A69134374
:10226C007B613B6923F00A033B613A69BB6813430A
:10227C003B61FB687A699A61FB683A691A6200BF34
:10228C001C37BD4680BC704780B487B000AFF86087
:10229C00B9607A6000237B6100233B61FB681B6A99
:1022AC0023F01002FB681A62FB689B697B61FB6878
:1022BC001B6A3B617B6923F470437B617B681B0366
:1022CC007A6913437B613B6923F0A0033B61BB68D4
:1022DC001B013A6913433B61FB687A699A61FB689D
:1022EC003A691A6200BF1C37BD4680BC704780B487
:1022FC0085B000AF78600B467B800023FB607B6869
:10230C009B68FB60FB6823F07003FB607B8843F0E9
:10231C0007039BB21A46FB681343FB607B68FA68A1
:10232C009A6000BF1437BD4680BC704780B487B03C
:10233C0000AFF860B9607A603B6000237B61FB689A
:10234C009B687B617B6923F47F437B613B681A024A
:10235C007B681A43BB6813437A6913437B61FB6840
:10236C007A699A6000BF1C37BD4680BC704780B448
:10237C0083B000AF786039607B6893F83C30012BF8
:10238C0001D1022332E07B68012283F83C207B6878
:10239C00022283F83D207B681B685A687B681B68A7
:1023AC0022F070025A607B681B6859683B681A6897
:1023BC007B681B680A435A607B681B689A687B6859
:1023CC001B6822F080029A607B681B6899683B68E6
:1023DC005A687B681B680A439A607B68012283F801
:1023EC003D207B68002283F83C20002318460C37E4
:1023FC00BD4680BC704780B483B000AF786000BF2E
:10240C000C37BD4680BC704780B483B000AF786099
:10241C0000BF0C37BD4680BC704780B582B000AFA2
:10242C0078607B68002B01D101233FE07B6893F837
:10243C003930DBB2002B06D17B68002283F83820C0
:10244C00786802F0F3F97B68242283F839207B68E2
:10245C001B68DA687B681B6822F40052DA607868C3
:10246C0000F0BAFC7B681B681A697B681B6822F455
:10247C0090421A617B681B685A697B681B6822F062
:10248C002A025A617B681B68DA687B681B6842F415
:10249C000052DA607B680022DA637B68202283F8C2
:1024AC0039207B68202283F83A200023184608370D
:1024BC00BD4680BD80B485B000AFF860B9601346EE
:1024CC00FB80FB6893F83930DBB2202B30D1BB6832
:1024DC00002B02D0FB88002B01D1012329E0FB68E3
:1024EC0093F83830012B01D1022322E0FB68012242
:1024FC0083F83820FB68BA681A62FB68FA889A84F9
:10250C00FB68FA88DA84FB680022DA63FB68212214
:10251C0083F83920FB68002283F83820FB681B689D
:10252C00DA68FB681B6842F08002DA60002300E086
:10253C00022318461437BD4680BC704780B485B062
:10254C0000AFF860B9601346FB80FB6893F83A3033
:10255C00DBB2202B40D1BB68002B02D0FB88002BB8
:10256C0001D1012339E0FB6893F83830012B01D1FC
:10257C00022332E0FB68012283F83820FB68BA683A
:10258C009A62FB68FA889A85FB68FA88DA85FB6898
:10259C000022DA63FB68222283F83A20FB680022CF
:1025AC0083F83820FB681B68DA68FB681B6842F408
:1025BC008072DA60FB681B685A69FB681B6842F022
:1025CC0001025A61FB681B68DA68FB681B6842F001
:1025DC002002DA60002300E0022318461437BD46BF
:1025EC0080BC704780B586B000AFF860B960134608
:1025FC00FB80FB6893F83930DBB2202B53D1BB68DE
:10260C00002B02D0FB88002B01D101234CE0FB688E
:10261C0093F83830012B01D1022345E0FB680122ED
:10262C0083F83820BA68FB681A62FB68FA889A84C7
:10263C00FB68FA88DA84FB680022DA63FB682122E3
:10264C0083F83920FB681B6B194A9A62FB681B6B79
:10265C00184ADA62FB681B6B174A1A63FB681B6B20
:10266C0000225A6307F108037B61FB68186B7B69D6
:10267C001968FB681B6804331A46FB88FDF762FF78
:10268C00FB681B686FF040021A60FB68002283F83D
:10269C003820FB681B685A69FB681B6842F0800293
:1026AC005A61002300E0022318461837BD4680BD4E
:1026BC00F7290008492A0008E92A000880B586B0E5
:1026CC0000AFF860B9601346FB80FB6893F83A30B2
:1026DC00DBB2202B66D1BB68002B02D0FB88002B11
:1026EC0001D101235FE0FB6893F83830012B01D155
:1026FC00022358E0FB68012283F83820BA68FB6893
:10270C009A62FB68FA889A85FB680022DA63FB6898
:10271C00222283F83A20FB685B6B254A9A62FB689D
:10272C005B6B244ADA62FB685B6B234A1A63FB68B7
:10273C005B6B00225A6307F108037B61FB68586BE3
:10274C00FB681B68043319467B691A68FB88FDF724
:10275C00F9FE00233B61FB681B681B683B61FB684F
:10276C001B685B683B613B69FB68002283F838207F
:10277C00FB681B68DA68FB681B6842F48072DA60DD
:10278C00FB681B685A69FB681B6842F001025A61BE
:10279C00FB681B685A69FB681B6842F040025A616F
:1027AC00002300E0022318461837BD4680BD00BF49
:1027BC00652A0008CD2A0008E92A000880B588B0EF
:1027CC0000AF78607B681B681B68FB617B681B68CB
:1027DC00DB68BB617B681B685B697B6100233B61C9
:1027EC000023FB60FB6903F00F033B613B69002B8B
:1027FC000DD1FB6903F02003002B08D0BB6903F05B
:10280C002003002B03D0786800F065FACCE03B691C
:10281C00002B00F0AB807B6903F00103002B05D18A
:10282C00BB6903F49073002B00F0A080FB6903F0EC
:10283C000103002B0AD0BB6903F48073002B05D075
:10284C007B68DB6B43F001027B68DA63FB6903F0A6
:10285C000403002B0AD07B6903F00103002B05D085
:10286C007B68DB6B43F002027B68DA63FB6903F085
:10287C000203002B0AD07B6903F00103002B05D067
:10288C007B68DB6B43F004027B68DA63FB6903F063
:10289C000803002B0AD07B6903F00103002B05D041
:1028AC007B68DB6B43F008027B68DA637B68DB6B6D
:1028BC00002B78D0FB6903F02003002B07D0BB69F9
:1028CC0003F02003002B02D0786800F004FA7B6838
:1028DC001B685B6903F04003002B14BF012300232A
:1028EC00DBB2FB607B68DB6B03F00803002B02D1CF
:1028FC00FB68002B31D0786800F04FF97B681B68BF
:10290C005B6903F04003002B23D07B681B685A697A
:10291C007B681B6822F040025A617B685B6B002B62
:10292C0013D07B685B6B224A5A637B685B6B1846DF
:10293C00FDF768FE0346002B16D07B685B6B5B6B68
:10294C007A68526B104698470EE0786800F044F8AD
:10295C000AE0786800F040F806E0786800F03CF88F
:10296C007B680022DA631EE000BF1CE0FB6903F009
:10297C008003002B08D0BB6903F08003002B03D02D
:10298C00786800F03BF90FE0FB6903F04003002B83
:10299C000AD0BB6903F04003002B05D0786800F027
:1029AC0082F900BF00E000BF2037BD4680BD00BFEC
:1029BC00E12B000880B483B000AF786000BF0C3707
:1029CC00BD4680BC704780B483B000AF786000BF58
:1029DC000C37BD4680BC704780B483B000AF7860C4
:1029EC0000BF0C37BD4680BC704780B584B000AFCB
:1029FC0078607B685B6AFB607B681B681B6803F014
:102A0C002003002B13D1FB680022DA84FB681B68BF
:102A1C005A69FB681B6822F080025A61FB681B68CC
:102A2C00DA68FB681B6842F04002DA6002E0F86882
:102A3C0001F0E2FD00BF1037BD4680BD80B584B00B
:102A4C0000AF78607B685B6AFB60F868FFF7B2FFE9
:102A5C0000BF1037BD4680BD80B584B000AF786034
:102A6C007B685B6AFB607B681B681B6803F0200358
:102A7C00002B1ED1FB680022DA85FB681B68DA6824
:102A8C00FB681B6822F48072DA60FB681B685A6969
:102A9C00FB681B6822F001025A61FB681B685A69CB
:102AAC00FB681B6822F040025A61FB68202283F805
:102ABC003A20F86801F072FD00BF1037BD4680BDAA
:102ACC0080B584B000AF78607B685B6AFB60F868A7
:102ADC00FFF779FF00BF1037BD4680BD80B584B0CD
:102AEC0000AF78600023FB607B685B6ABB60BB68EF
:102AFC001B685B6903F08003002B14BF01230023C8
:102B0C00DBB2FB60BB6893F83930DBB2212B08D108
:102B1C00FB68002B05D0BB680022DA84B86800F093
:102B2C0027F8BB681B685B6903F04003002B14BFDC
:102B3C0001230023DBB2FB60BB6893F83A30DBB2B5
:102B4C00222B08D1FB68002B05D0BB680022DA854C
:102B5C00B86800F022F8BB68DB6B43F01002BB686E
:102B6C00DA63B868FFF738FF00BF1037BD4680BD89
:102B7C0080B483B000AF78607B681B68DA687B68D0
:102B8C001B6822F0C002DA607B68202283F83920AF
:102B9C0000BF0C37BD4680BC704780B483B000AF1B
:102BAC0078607B681B68DA687B681B6822F490721B
:102BBC00DA607B681B685A697B681B6822F001022B
:102BCC005A617B68202283F83A2000BF0C37BD463F
:102BDC0080BC704780B584B000AF78607B685B6A5E
:102BEC00FB60FB680022DA85FB680022DA84F86857
:102BFC00FFF7F2FE00BF1037BD4680BD80B485B034
:102C0C0000AF78607B6893F83930DBB2212B44D16C
:102C1C007B689B68B3F5805F1AD17B681B6AFB608D
:102C2C00FB681B881A467B681B68C2F308025A6053
:102C3C007B681B69002B05D17B681B6A9A1C7B681F
:102C4C001A620EE07B681B6A5A1C7B681A6208E0E9
:102C5C007B681B6A591C7A6811621A787B681B683E
:102C6C005A607B68DB8C9BB2013B9BB27A6819463D
:102C7C00D184002B0FD17B681B68DA687B681B68DA
:102C8C0022F08002DA607B681B68DA687B681B685C
:102C9C0042F04002DA60002300E0022318461437A9
:102CAC00BD4680BC704780B582B000AF78607B6851
:102CBC001B68DA687B681B6822F04002DA607B686C
:102CCC00202283F83920786801F096FC00231846FE
:102CDC000837BD4680BD80B584B000AF78607B6896
:102CEC0093F83A30DBB2222B71D17B689B68B3F539
:102CFC00805F23D17B689B6AFB607B681B69002B20
:102D0C000ED17B681B685B689BB2C3F308039AB255
:102D1C00FB681A807B689B6A9A1C7B689A6229E024
:102D2C007B681B685B689BB2DBB29AB2FB681A804B
:102D3C007B689B6A5A1C7B689A621BE07B681B69E8
:102D4C00002B0AD17B681B6858687B689B6A591CEE
:102D5C007A689162C2B21A700CE07B681B685B687F
:102D6C00DAB27B689B6A581C7968886202F07F0231
:102D7C00D2B21A707B68DB8D9BB2013B9BB27A6836
:102D8C001946D185002B20D17B681B68DA687B68DB
:102D9C001B6822F02002DA607B681B68DA687B68AB
:102DAC001B6822F48072DA607B681B685A697B6846
:102DBC001B6822F001025A617B68202283F83A20BA
:102DCC00786801F0EBFB002302E0002300E0022313
:102DDC0018461037BD4680BDB0B584B000AF7860E2
:102DEC000023FB607B681B681B6923F440517B68E4
:102DFC00DA687B681B680A431A617B689A687B688F
:102E0C001B691A437B685B691343FA681343FB60C5
:102E1C007B681B68DB6823F4B05323F00C037A68DF
:102E2C001268F9680B43D3607B681B685B6923F4F9
:102E3C0040717B689A697B681B680A435A617B689E
:102E4C001B686F4A93426BD1FEF7DEFC02461346B9
:102E5C009B0013449A001A447B685B689B00B2FB8E
:102E6C00F3F3684AA2FB03235B091C01FEF7CCFCBD
:102E7C00024613469B0013449A001A447B685B6815
:102E8C009B00B2FBF3F5FEF7BFFC024613469B001A
:102E9C0013449A001A447B685B689B00B2FBF3F303
:102EAC00584AA2FB03235B09642202FB03F3EB1ACF
:102EBC001B013233534AA2FB03235B0903F0F003DB
:102ECC001C44FEF7A1FC024613469B0013449A00D7
:102EDC001A447B685B689B00B2FBF3F5FEF794FC2D
:102EEC00024613469B0013449A001A447B685B68A5
:102EFC009B00B2FBF3F3434AA2FB03235B0964225E
:102F0C0002FB03F3EB1A1B0132333E4AA2FB0323F1
:102F1C005B0903F00F027B681B6822449A606AE02D
:102F2C00FEF75EFC024613469B0013449A001A44BB
:102F3C007B685B689B00B2FBF3F3324AA2FB032372
:102F4C005B091C01FEF74CFC024613469B00134424
:102F5C009A001A447B685B689B00B2FBF3F5FEF7A2
:102F6C003FFC024613469B0013449A001A447B68AC
:102F7C005B689B00B2FBF3F3224AA2FB03235B09C1
:102F8C00642202FB03F3EB1A1B0132331D4AA2FB32
:102F9C0003235B0903F0F0031C44FEF721FC0246FB
:102FAC0013469B0013449A001A447B685B689B0091
:102FBC00B2FBF3F5FEF714FC024613469B001344D8
:102FCC009A001A447B685B689B00B2FBF3F30D4AD2
:102FDC00A2FB03235B09642202FB03F3EB1A1B0124
:102FEC003233084AA2FB03235B0903F00F027B6810
:102FFC001B6822449A6000BF1037BD46B0BD00BFAD
:10300C00003801401F85EB5180B485B000AF78606B
:10301C000B46FB7000233B730023BB7325E07B68DE
:10302C005A1C7A601B787B730023FB7317E07A7B46
:10303C003B7B5340DBB203F00103FB723B7B5B0831
:10304C003B73FB7A002B04D03B7B83F07303DB4395
:10305C003B737B7B5B087B73FB7B0133FB73FB7BE1
:10306C00072BE4D9BB7B0133BB73BA7BFB789A4249
:10307C00D5D33B7B18461437BD4680BC7047000047
:10308C0080B582B000AF78600F4B104A1A600E4AC0
:10309C007B6853600C4B00229A600B4B0022DA6069
:1030AC00094B00221A61084B0C225A61064B002274
:1030BC009A61054B0022DA610348FFF7AEF900BFB5
:1030CC000837BD4680BD00BFF80400200038014021
:1030DC0080B582B000AFF023FB714FF41650FFF7B0
:1030EC00CFFFFB1D012219460548FFF77BFA012291
:1030FC0004490348FFF7E2FA00BF0837BD4680BD1C
:10310C00F8040020D102002080B400AF034B012250
:10311C001A7000BFBD4680BC704700BF740200200F
:10312C0080B483B000AF0346FB71FB79FF2B01D158
:10313C00012300E0002318460C37BD4680BC7047C5
:10314C0080B584B000AF0346FB710023FB730023F2
:10315C00BB6018E0FB79DA00BB6813440E4AD35C01
:10316C001846FFF7DDFF0346002B09D00122BB6890
:10317C0002FA03F35AB297F90F3013435BB2FB73A5
:10318C00BB680133BB60BB68072BE3DDFB7B1846D8
:10319C001037BD4680BD00BFD402002090B583B06F
:1031AC0000AF02237B600DE07B68DAB27B689C1E6B
:1031BC001046FFF7C5FF03461A46064B1A557B68A7
:1031CC0001337B607B680B2BEEDD00BF0C37BD46FB
:1031DC0090BD00BFC802002080B400AF1D4B1B780F
:1031EC00DBB2023B062B31D801A252F823F000BF10
:1031FC0019320008593200083132000859320008DF
:10320C00393200085932000851320008124B1B7831
:10321C00F02B03D00F4B03221A7017E00D4BFE223C
:10322C001A7013E00B4BFF221A700FE00A4B1B783D
:10323C00F02B03D0074B07221A7007E0054BFE2238
:10324C001A7003E0034B09221A7000BF00BFBD4681
:10325C0080BC704774020020D102002080B582B07F
:10326C0000AF7F4B1B78DBB2072B38D0072B06DC6B
:10327C00032B1CD0052B2CD0012B09D0EBE0FD2B04
:10328C0000F0DB80FE2B00F0DF80092B39D0E2E070
:10329C00FFF71EFF734B00221A70714B02221A703B
:1032AC00714B00221A80714B00221A70D3E04FF43C
:1032BC00E130FFF7E5FE10226D496E48FFF792F9F9
:1032CC0010226D496B48FFF7F9F9654B04221A700F
:1032DC00C1E0FFF7FDFE624B06221A70BBE04FF413
:1032EC00E130FFF7CDFE582264496248FFF77AF9C6
:1032FC00582261495F48FFF7E1F9594B08221A70CF
:10330C00A9E0FFF74BFF08215D48FFF77DFE034660
:10331C00FB715B4B1B7AFA799A4240F08780584BD1
:10332C005B785BB2002B0FDA554B5B78DB43DAB280
:10333C00534B5A70524B1B785B42DAB2504B1A709B
:10334C00504B01221A7002E04E4B00221A704C4B6B
:10335C005B781B01DBB25BB203F070035AB2484BD3
:10336C001B781B09DBB25BB213435BB2DAB2464B80
:10337C001A70444B1B78002B06D0434B1B7863F020
:10338C007F03DAB2404B1A703D4B1B7803F00F03EE
:10339C0040F2712202FB03F33C4A82FB03129211AE
:1033AC00DB17D31ADAB23A4B1A703A4B1B78002B54
:1033BC0011D0394B1A78394B1B789A4206D0354BC1
:1033CC0002221A70344B1A78344B1A702E4B1A781E
:1033DC00314B1A702DE0324B1B78002B09D02A4B45
:1033EC001B781A462A4B1B781946104600F03AFDFA
:1033FC001FE0254B1B785BB2002B01DA2D2200E07D
:10340C002B22284B1A70204B1B7803F07F03DAB267
:10341C001D4B1A70234B1B7819461B4B1B781A46F5
:10342C001B4B1B78204800F02BFC02E01F4800F0DF
:10343C0027FC0B4B00221A700DE0094B00221A706E
:10344C001B4800F01DFC06E0054B00221A701948C1
:10345C0000F016FC00BF00BF0837BD4680BD00BFA2
:10346C0074020020D1020020760200207902002094
:10347C0008000020F8040020D402002018000020CE
:10348C00C802002078020020D2020020D34D621026
:10349C0030030020820200208402002083020020DE
:1034AC00C002002070000020A8610008B86100086C
:1034BC00D0610008E46100080FB480B5A4B000AF7F
:1034CC0007F19C037B6007F10C037A68D7F898101E
:1034DC00184601F08FFD2F4B1B78DBB2BB6000232D
:1034EC00C7F88C3015E0BB6807F10C01D7F88C20BD
:1034FC000A441178284AD154BB680133BB60BB68BD
:10350C00FF2B01DD0023BB60D7F88C300133C7F8EB
:10351C008C3007F10C031846FCF712FE0246D7F864
:10352C008C309A42DFD872B61A4B1B78DAB21B4B2E
:10353C001B78DBB29A4221D1194B1B681B6803F034
:10354C008003802B1AD1BB68DAB2124B1A70134B62
:10355C001B78DBB21A46104B9B5CFB700F4B1B7835
:10356C00DBB20133DAB20D4B1A700C4B1B78FB1C1F
:10357C00012219460A48FEF79DFF03E0BB68DAB248
:10358C00044B1A7062B600BF9037BD46BDE8804050
:10359C0004B070477D0200209C0600207C020020B5
:1035AC005405002080B586B002AF78607868FCF7CF
:1035BC00C7FD0346DAB29E4B1A709D4B1B78002B4D
:1035CC0000F045829A4B1B78013B19467868FFF74F
:1035DC001BFD0346DAB2974B1A70954B1B78013BD7
:1035EC007A6813441A78934B1A707B6801331B78F2
:1035FC00422B40F028828E4B1B78013B7A68134497
:10360C001A788C4B1B789A4240F019827B680233F3
:10361C0006228949184601F0C5FC0346002B65D1EA
:10362C007B68981C854B0193854B0093854B864A90
:10363C00864901F08BFC0346DAB2854B1A70844B39
:10364C001B78042B4ED1804B1B680F2B04D97E4B5F
:10365C001B68B3F1FF3F41D17B4B5B68FF2B39D823
:10366C00794B9B68FF2B31D8774BDB68FF2B29D824
:10367C0000F066FD744B5B68DAB2764B1A70724BD5
:10368C009B68DAB2734B5A706F4BDB68DAB2714BD2
:10369C009A706D4B1B68B3F1FF3F05D16D4B012147
:1036AC00186801F063FB07E0674B1B6898B2694B25
:1036BC000122196801F0AAFA01F072FB664800F0C9
:1036CC00DFFAC8E1654800F0DBFAC4E1644800F0B9
:1036DC00D7FAC0E1634800F0D3FABCE1624800F0CD
:1036EC00CFFAB8E1614800F0CBFAB4E17B68023361
:1036FC000D225F49184601F055FC0346002B02D100
:10370C0000F044FCA7E17B680233082259491846B3
:10371C0001F048FC0346002B0ED1574B1B68002BC5
:10372C0002D0554B00221A6000F00AFD534800F0FD
:10373C00A7FAFFF7E9FC8EE17B6802330A225049B5
:10374C00184601F02FFC0346002B0BD100F0F8FCBF
:10375C004C4800F095FA484B00221A604A4B002264
:10376C001A7078E17B68023307224849184601F049
:10377C0019FC0346002B2BD17B680233324A444997
:10378C00184601F0E3FB0346DAB2314B1A70304BAA
:10379C001B78012B18D12C4B1B68B3F57A7F0FD3F8
:1037AC0000F0CEFC344B01221A603A4B00221A6016
:1037BC00254B1B68384A1360384800F061FA4AE11F
:1037CC00374800F05DFA46E1364800F059FA42E11C
:1037DC007B68023308223449184601F0E3FB0346A8
:1037EC00002B40F0B2807B680233174A2F491846F1
:1037FC0001F0ACFB0346DAB2154B1A70144B1B7874
:10380C00012B40F09E80104B1B680F2B05D90E4BE3
:10381C001B68B3F1FF3F40F0908000F091FC0A4B25
:10382C001B68B3F1FF3F63D10023FB815CE000BF59
:10383C00D803002038050020FC6100084C0500204E
:10384C0048050020440500204005002004620008C3
:10385C00740000208C02002018620008246200080A
:10386C00386200084C62000860620008746200084C
:10387C008862000898620008C0020020A462000858
:10388C00B0620008BC62000874020020CC62000820
:10389C00D46200082C030020C4020020E06200085F
:1038AC00EC62000804630008186300082463000835
:1038BC00FB896B4A0021D154FB896A4A002142F8EA
:1038CC002310FB89684A002142F82310FB89674AC0
:1038DC00002142F82310664BF8890122196801F087
:1038EC0095F9FB890133FB81FB890F2BE0D91EE095
:1038FC00604B1B685A4A0021D1545E4B1B68594AD5
:10390C00002142F823105B4B1B68574A002142F8F8
:10391C002310584B1B68554A002142F82310554B75
:10392C001B6898B2524B0122196801F06FF901F033
:10393C0037FA514800F0A4F98DE0504800F0A0F996
:10394C0089E04F4800F09CF985E07B680233052242
:10395C004C49184601F026FB0346002B47D17B68E7
:10396C00981C494B0093494B424A494901F0EEFAE5
:10397C000346DAB2474B1A70464B1B78032B32D1F5
:10398C003C4B1B680F2B2AD83A4B5B68092B22D96E
:10399C00384B9B68092B5ED900F0D2FB3E4800F0F7
:1039AC006FF9344B1B682E4A0121D154314B1B68E3
:1039BC002C4A002142F823102E4B1B682D4A5268CA
:1039CC00294941F823202B4B1B682A4A9268274926
:1039DC0041F823203FE0314800F052F93BE03048F9
:1039EC0000F04EF937E02F4800F04AF933E07B68DD
:1039FC00023308222C49184601F0D4FA0346002B56
:103A0C0005D100F09DFB294800F03AF923E07B68D2
:103A1C00023305222649184601F0C4FA0346002B4E
:103A2C0009D1244B01221A70234B00221A802348FF
:103A3C0000F026F90FE0224800F022F90BE02148B3
:103A4C0000F01EF907E0204800F01AF903E01F48C7
:103A5C0000F016F9FFE700BF1037BD4680BD00BF70
:103A6C005C090020AC0900201C0900206C09002016
:103A7C008802002040050020306300083C630008E9
:103A8C00546300086C6300084805002044050020BE
:103A9C0074630008740000208463000890630008BD
:103AAC00A4630008B8630008CC630008D86300085E
:103ABC00E46300088202002086020020EC63000808
:103ACC00F8630008086400081864000828640008FB
:103ADC0080B483B000AF104B1B78DAB20F4B1B785D
:103AEC00DBB29A4211D00C4B1B78DBB21A460C4B52
:103AFC009B5CFB71084B1B78DBB20133DAB2064BD3
:103B0C001A70054B1B78FB7900E0FF2318460C3725
:103B1C00BD4680BC704700BF7E0200207F020020A3
:103B2C009C05002080B483B000AF00237B6007E0CD
:103B3C00094A7B68134400221A707B6801337B604E
:103B4C007B687F2BF4DD054B00221A6000BF0C371D
:103B5C00BD4680BC704700BFDC0300203C05002044
:103B6C0080B500AF344B1B78DAB2344B1B78DBB228
:103B7C009A425FD0FFF7ACFF03461A46304B1A70DF
:103B8C00304B1B6800225A622F4B1B78032B2FD013
:103B9C00042B0CD0002B00D04CE0294B1B782F2B86
:103BAC0047D1FFF7BFFF284B04221A7041E0244B8A
:103BBC001B782F2B08D12548FFF7F4FCFFF7B2FF39
:103BCC00214B04221A7035E01D4B1B783C2B03D182
:103BDC001D4B03221A702DE01D4B1B68184A1178DF
:103BEC001A4AD1541A4B1B680133194A136021E04D
:103BFC00134B1B783D2B0AD1154B1B68134A2F21F5
:103C0C00D154134B1B680133114A13600DE00C4B5C
:103C1C001B783E2B09D10E4B1B680C4A3C21D1540E
:103C2C000B4B1B6801330A4A1360074B04221A70B2
:103C3C0000E000BF00BF80BD7E0200207F0200209C
:103C4C008F0200209403002081020020DC0300205E
:103C5C003C05002080B483B000AF78600B46FB704D
:103C6C001346BB7097F90330002B04DBFB787A68A2
:103C7C001344BA781A7000BF0C37BD4680BC70472D
:103C8C000FB480B5C4B000AF07F58E73C7F884309D
:103C9C0007F18803D7F88420D7F81811184601F0DB
:103CAC00A9F93B1D184680231A46002101F046F95C
:103CBC003B1D422200211846FFF7CCFF3B1D412241
:103CCC0001211846FFF7C6FF0023C7F80C3148E066
:103CDC0007F18802D7F80C3113441B782F2B16D020
:103CEC003C2B29D1D7F80C31DBB20233D9B23B1DB6
:103CFC003C221846FFF7AEFFD7F80C31DBB203338A
:103D0C00D9B23B1D3E221846FFF7A4FF24E0D7F89A
:103D1C000C31DBB20233D9B23B1D3C221846FFF703
:103D2C0099FFD7F80C31DBB20333D9B23B1D3D22DE
:103D3C001846FFF78FFF0FE0D7F80C31DBB20233D8
:103D4C00D9B207F18802D7F80C3113441A783B1D0D
:103D5C001846FFF77FFF00BFD7F80C310133C7F8C7
:103D6C000C3107F18802D7F80C3113441B78002B67
:103D7C00AED13B1D1846FCF7E3F902463B1D11463C
:103D8C001846FFF741F9034687F80B313B1D1846DF
:103D9C00FCF7D6F90346D9B297F80B213B1D184610
:103DAC00FFF758FF3B1D19460548FFF785FB00BF81
:103DBC0007F58877BD46BDE8804004B0704700BF6A
:103DCC003464000880B485B000AF78607B6803F180
:103DDC007843FB60FB689B0AFB60FB68DBB2184610
:103DEC001437BD4680BC704780B485B000AF786096
:103DFC0039607B6800221A603B68174A1A60174BBF
:103E0C00FB6014E0FB681B68BB60BB68B3F1FF3F51
:103E1C000AD07B681B68BA689A4205D97B68BA6875
:103E2C001A603B68FA681A60FB680833FB60FB6831
:103E3C000B4A9342E6D97B681B685A1C7B681A6054
:103E4C003B681B6803F108023B681A6000BF14371B
:103E5C00BD4680BC704700BFF87F01080080010898
:103E6C00FFFF010890B585B000AF03460A46FB8002
:103E7C001346BB803D4B00221A603C4B0122DA609A
:103E8C00FCF7DAFD3A4B1B683A4A934202D1384BA5
:103E9C00394A1A60364B1B68C3F30903002B27D130
:103EAC00334B1B681846FFF78DFF0346FB73334BF0
:103EBC001B681846FFF786FF0346BB73FA7BBB7B78
:103ECC009A420DD12E4B1A682C4B1B689A4207D282
:103EDC00BB7B03F5003301339B021A46274B1A6058
:103EEC00234B1B68214A936026492048FCF78CFE23
:103EFC001F4B1968244B1B684FF000041A462346CD
:103F0C000220FCF729FD1A4B1B680433184A136076
:103F1C00174B1968FB884FF000041A462346012002
:103F2C00FCF71AFD124B1B680233114A1360104B3D
:103F3C001968BB884FF000041A4623460120FCF791
:103F4C000BFD0B4B1B680E4A1360094B1B680233AD
:103F5C00074A1360FCF796FD0B4B1B6801330A4AAA
:103F6C00136000BF1437BD4690BD00BF5C04002039
:103F7C0034030020000002080080010838030020F0
:103F8C00D4030020980500207800002080B582B072
:103F9C0000AF214B1A68214B1B689A4235D01E4B3F
:103FAC001B681F4A934202D11B4B1E4A1A601A4BC4
:103FBC001B680433184A1360174B1B681B88FB8063
:103FCC00154B1B680233144A1360134B1B681B8878
:103FDC00BB80114B1B6802330F4A1360FB8803F044
:103FEC008003002B01D02D2200E02B220E4B1A70E7
:103FFC00FB8803F07F03FB800B4B1B781946FA8878
:10400C00BB880A48FFF73CFE02E00948FFF738FE80
:10401C0000BF0837BD4680BD3803002034030020A4
:10402C000000020800800108940500203864000894
:10403C004864000880B584B000AF3A4B1B78022B63
:10404C006BD1394B0121186800F090FE374B1B786F
:10405C005BB2002B01DA2D2200E02B22344B1A70BC
:10406C00324B1B7803F07F03DAB2304B1A7000230B
:10407C00FB732E4B1A782F4BA3FB021399080B469C
:10408C009B000B44D31ADBB2002B09D1274B1B78B6
:10409C00284AA2FB03239B08DBB2013BFB7306E01F
:1040AC00224B1B78234AA2FB03239B08FB73FB7B4D
:1040BC00072B01D90723FB731D4B1B782B2B10D11E
:1040CC000023BB6009E0BB6898B21B4B0122196846
:1040DC0000F09CFDBB680133BB60FB7BBA689A4265
:1040EC00F1DD134B1B782D2B12D10F237B6009E0D4
:1040FC007B6898B2114B0122196800F087FD7B6830
:10410C00013B7B60FB7BC3F10F037A689A42EFDAC9
:10411C0000F046FE034B01221A7000BF1037BD465B
:10412C0080BD00BF82020020880200208402002093
:10413C0094050020CDCCCCCC7C000020800000204D
:10414C0080B500AF0D4B1B78002B15D00B4B00220C
:10415C001A700B4B00221A800A4B00221A700A4B61
:10416C0000221A70094B0121186800F0FFFD084B62
:10417C0000221A7000F014FE00BF80BD82020020E5
:10418C008602002083020020840200208802002086
:10419C007402002080B500AFFBF7DAFF00F044F8A2
:1041AC0000F09CF900F074F900F044F900F0C8F844
:1041BC0000F08AF800F010F900F014FD114B1B7898
:1041CC00DBB21A46104B1344012219460F48FEF776
:1041DC00B5F90F48FDF79EFD0E4B0F4A1A600F49BB
:1041EC000F48FFF701FE0D4B1B68023B0D4A136095
:1041FC00FFF7B6FCFFF732F800F0E2FDFFF71AFF0D
:10420C00F6E700BF7F0200209C050020540500202B
:10421C0094030020380300200080010834030020A0
:10422C0078000020D403002080B590B000AF0223AA
:10423C00BB610123BB621023FB6202237B6300235F
:10424C00BB634FF4C013FB6307F118031846FCF76C
:10425C0003FF0346002B04D040F27E21184800F0E7
:10426C002FFA0F237B600223BB600023FB6000232B
:10427C003B6100237B613B1D01211846FDF750F982
:10428C000346002B04D04FF423710D4800F018FAAC
:10429C00FDF79CFA02460B4BA3FB02239B09184625
:1042AC00FCF7B5F80420FCF7BFF8002200214FF012
:1042BC00FF30FCF782F800BF4037BD4680BD00BF21
:1042CC0050640008D34D621080B500AF194B1A4AE8
:1042DC001A60184B4FF482725A60164B00229A6087
:1042EC00144B4FF40062DA60124B00221A61114B2E
:1042FC0000225A610F4B4FF400729A610D4B102241
:10430C00DA610C4B00221A620A4B00225A62094BEA
:10431C0000229A62074B0A22DA620648FDF76AFC11
:10432C000346002B04D040F2AE21044800F0C8F93B
:10433C0000BF80BD3C0300200038004050640008E2
:10434C0080B586B000AF214B214A1A601F4B1F224B
:10435C005A601E4B00229A601C4B6722DA601B4B82
:10436C0000221A61194B00229A611848FDF7A7FC2C
:10437C000346002B04D040F2C221164800F0A0F9ED
:10438C004FF48053BB6007F1080319460F48FDF743
:10439C00E3FD0346002B04D04FF432710D4800F0BE
:1043AC008FF900233B6000237B603B46194607488E
:1043BC00FDF7DDFF0346002B04D040F2CF2105486A
:1043CC0000F07EF900BF1837BD4680BD9403002075
:1043DC00000800405064000880B500AF124B134A2F
:1043EC001A60114B4FF416525A600F4B00229A6010
:1043FC000D4B0022DA600C4B00221A610A4B0C2286
:10440C005A61094B00229A61074B0022DA61064877
:10441C00FEF703F80346002B04D040F2E2210448D7
:10442C0000F04EF900BF80BDF804002000380140B8
:10443C005064000880B500AF124B134A1A60114B40
:10444C004FF416525A600F4B00229A600D4B00220B
:10445C00DA600C4B00221A610A4B0C225A61094B90
:10446C0000229A61074B0022DA610648FDF7D5FF5E
:10447C000346002B04D040F2F521044800F020F94B
:10448C0000BF80BD5405002000440040506400086B
:10449C0080B582B000AF104B5B690F4A43F001034B
:1044AC0053610D4B5B6903F001037B607B68002259
:1044BC0000210E20FBF781FF0E20FBF79AFF002254
:1044CC0000210F20FBF779FF0F20FBF792FF00BFB5
:1044DC000837BD4680BD00BF0010024080B588B0D3
:1044EC0000AF2A4B9B69294A43F010039361274B79
:1044FC009B6903F01003FB60FB68244B9B69234A08
:10450C0043F020039361214B9B6903F02003BB60B4
:10451C00BB681E4B9B691D4A43F0040393611B4B04
:10452C009B6903F004037B607B68184B9B69174AFB
:10453C0043F008039361154B9B6903F008033B6040
:10454C003B684FF400533B61114B7B610023BB6113
:10455C0007F1100319460F48FCF7FEFB20233B61C3
:10456C0000237B610023BB6107F1100319460A4845
:10457C00FCF7F2FB002200212820FBF71EFF28206D
:10458C00FBF737FF00BF2037BD4680BD001002404F
:10459C0000001110001001400008014080B582B0ED
:1045AC0000AF78607B68104A934213D10F4B1B7895
:1045BC00DBB20133DAB20D4B1A700C4B1B780B4B80
:1045CC001B78DBB21A460A4B1344012219460648E3
:1045DC00FDF7B4FF7B68074A934201D1FEF7FCFD5F
:1045EC0000BF0837BD4680BD540500207F02002067
:1045FC009C050020F804002080B584B000AF7860E2
:10460C007B68134A93421ED1124B1B78DAB2124BC1
:10461C001B78DBB29A4216D00F4B1B78DBB21A46D2
:10462C000E4B9B5CFB730C4B1B78DBB20133DAB289
:10463C00094B1A70084B1B7807F10F03012219461E
:10464C000348FDF737FF00BF1037BD4680BD00BFE4
:10465C00540500207D0200207C0200209C060020D6
:10466C0080B483B000AF78607B68114A93421AD152
:10467C00104B1B681B6803F01003102B13D10E4B4F
:10468C001B78042B0FD10D4B1B780133DAB20B4B7B
:10469C001A700A4B1B78022B05D9084B00221A7092
:1046AC00054B00221A7000BF0C37BD4680BC70470A
:1046BC009403002054050020810200208002002079
:1046CC0080B483B000AF78603960FEE780B584B009
:1046DC0000AF2B4B9B692A4A43F001039361284B93
:1046EC009B6903F00103BB60BB68254BDB69244A63
:1046FC0043F08053D361224BDB6903F080537B6022
:10470C007B680320FBF74EFE002200216FF00B00AC
:10471C00FBF753FE002200216FF00A00FBF74DFE61
:10472C00002200216FF00900FBF747FE0022002158
:10473C006FF00400FBF741FE002200216FF0030034
:10474C00FBF73BFE002200216FF00100FBF735FE6A
:10475C00002200214FF0FF30FBF72FFE094B5B6866
:10476C00FB60FB6823F0E063FB60FB6843F00073C5
:10477C00FB60044AFB68536000BF1037BD4680BD28
:10478C00001002400000014080B588B000AF786096
:10479C007B681B680F4A934218D10F4BDB690E4A9A
:1047AC0043F48043D3610C4BDB6903F48043FB601F
:1047BC00FB684FF420433B6102237B610323FB61C5
:1047CC0007F1100319460548FCF7C6FA00BF20375D
:1047DC00BD4680BD0038004000100240000C014076
:1047EC0080B584B000AF78607B681B680D4A93423B
:1047FC0013D10D4BDB690C4A43F00403D3610A4B14
:10480C00DB6903F00403FB60FB68002200211E201F
:10481C00FBF7D3FD1E20FBF7ECFD00BF1037BD46A8
:10482C0080BD00BF000800400010024080B588B079
:10483C0000AF78607B681B68554A93427ED1554B1C
:10484C009B69544A43F480439361524B9B6903F434
:10485C008043FB60FB684FF400733B6102237B6178
:10486C000323FB6107F1100319464B48FCF774FA5C
:10487C004FF480633B6100237B610023BB6107F134
:10488C00100319464448FCF767FA444B444A1A6033
:10489C00424B00225A60414B00229A603F4B8022CF
:1048AC00DA603E4B00221A613C4B00225A613B4BB2
:1048BC0000229A61394B0022DA613848FBF7DCFDA3
:1048CC000346002B03D0DA213648FFF7F9FE7B684C
:1048DC00324A5A63314A7B685362334B334A1A600B
:1048EC00314B10225A60304B00229A602E4B8022A2
:1048FC00DA602D4B00221A612B4B00225A612A4B95
:10490C0000229A61284B0022DA612748FBF7B4FD9C
:10491C000346002B03D0EA212248FFF7D1FE7B6827
:10492C00214A1A63204A7B68536200220021252009
:10493C00FBF743FD2520FBF75CFD24E07B681B683F
:10494C001B4A93421FD1134BDB69124A43F40033C9
:10495C00D361104BDB6903F40033BB60BB680C23E1
:10496C003B6102237B610223FB6107F110031946B3
:10497C000948FCF7F1F9002200212620FBF71DFD68
:10498C002620FBF736FD00BF2037BD4680BD00BF9B
:10499C00003801400010024000080140B004002023
:1049AC0058000240606400086C040020440002407F
:1049BC000044004080B400AF00BFBD4680BC7047CF
:1049CC0080B400AFFEE780B400AFFEE780B400AF68
:1049DC00FEE780B400AFFEE780B400AF00BFBD4679
:1049EC0080BC704780B400AF00BFBD4680BC704730
:1049FC0080B400AF00BFBD4680BC704780B582B0AC
:104A0C0000AFFBF7EBFBFBF72BFD354B1B78FF2BBC
:104A1C0011D1344B1B8801339AB2324B1A80314B73
:104A2C001B8840F2ED22934205D92E4B00221A80AE
:104A3C002B4B05221A702C4B1B78002B0FD02B4BB9
:104A4C001B680133294A1360284B1A68284B1B68D2
:104A5C009A4204D3254B00221A60FEF755FB254BD6
:104A6C001B78002B0FD0244B1B88B3F57A7F04D313
:104A7C00214B00221A80FEF747FB1F4B1B8801338A
:104A8C009AB21D4B1A80164B1B78022B0CD11B4B68
:104A9C001B78022B02D9124BFD221A70174B1B7874
:104AAC000133DAB2154B1A7000237B6011E0144A03
:104ABC007B6813441B78002B08D0124A7B6852F891
:104ACC0023305A1C0F497B6841F823207B68013343
:104ADC007B607B680F2BEADD00BF0837BD4680BDCD
:104AEC007402002076020020C00200202C0300205B
:104AFC00C4020020820200208602002079020020DD
:104B0C005C090020AC09002080B500AF0248FBF71F
:104B1C00EFFD00BF80BD00BF6C04002080B500AF6E
:104B2C000248FBF7E5FD00BF80BD00BFB0040020CC
:104B3C0080B500AF0248FDF707F900BF80BD00BF8C
:104B4C009403002080B500AF0248FDF737FE00BF8C
:104B5C0080BD00BFF804002080B500AF0248FDF70F
:104B6C002DFE00BF80BD00BF5405002080B500AFF6
:104B7C004FF40050FCF74EFA00BF80BD80B400AF7C
:104B8C00154B1B68144A43F001031360124B5A680F
:104B9C001149124B13404B600F4B1B680E4A23F00C
:104BAC00847323F4803313600B4B1B680A4A23F481
:104BBC0080231360084B5B68074A23F4FE035360A1
:104BCC00054B4FF41F029A60054B4FF000629A6040
:104BDC0000BFBD4680BC7047001002400000FFF8CB
:104BEC0000ED00E080B582B000AF00233B710023E4
:104BFC007B710023BB710121786800F0B7F800F0DD
:104C0C00CFF800BF0837BD4680BD000080B487B028
:104C1C0000AF03463960FB8013467B717B781A46E4
:104C2C004F4B9B5CFB75BB781A464D4B9B5CBB7525
:104C3C003B781A464A4B9B5C7B757B79002B0BD0DF
:104C4C00FA88484913465B0013440B441A463B460A
:104C5C0019889B7811809370FB880F2B7AD80723C7
:104C6C003B6122E0FB7D03F00103DBB2002B0BD098
:104C7C00FA8813465B001344DB001A463B69134465
:104C8C000E21394AD1540AE0FA8813465B001344CA
:104C9C00DB001A463B6913440821334AD154FB7D8F
:104CAC005B08FB753B69013B3B613B69002BD9DA27
:104CBC000F23FB6022E07B7D03F00103DBB2002BB2
:104CCC000BD0FA8813465B001344DB001A46FB68D2
:104CDC0013440E21244AD1540AE0FA8813465B008F
:104CEC001344DB001A46FB68134408211E4AD154B6
:104CFC007B7D5B087B75FB68013BFB60FB68072BCE
:104D0C00D9DC1723BB6022E0BB7D03F00103DBB2CF
:104D1C00002B0BD0FA8813465B001344DB001A46B9
:104D2C00BB6813440E21104AD1540AE0FA8813468A
:104D3C005B001344DB001A46BB68134408210A4A83
:104D4C00D154BB7D5B08BB75BB68013BBB60BB68CA
:104D5C000F2BD9DC00BF1C37BD4680BC704700BF91
:104D6C0098640008EC0900209C07002080B584B0F2
:104D7C0000AF78600B46FB700023FB6009E0FB681A
:104D8C009BB2FA7879681846FFF740FFFB6801334D
:104D9C00FB60FB680F2BF2DD00BF1037BD4680BDFA
:104DAC0080B500AF4FF47A73C02203490348FCF777
:104DBC005DFD00BF80BD00BF9C0700203C030020B0
:104DCC0080B582B000AF00237B6059E0304A7B682D
:104DDC0013441B78002B50D02E4A7B6852F82320AA
:104DEC002D497B6851F823102C487B6850F82330F0
:104DFC000B44013B9A4204D1264A7B68002142F8BD
:104E0C002310244A7B6852F82330002B17D17B687F
:104E1C0098B223497A6813465B0013440B441A7802
:104E2C00597809020A439B781B041A43002362F346
:104E3C00170301221946FFF7E9FEFFF7B1FF154AE8
:104E4C007B6852F8232015497B6851F82330013BCD
:104E5C009A4212D17B6898B2124B1A78597809028F
:104E6C000A439B781B041A43002362F317030022A6
:104E7C001946FFF7CBFEFFF793FF7B6801337B608E
:104E8C007B680F2BA2DD00BF0837BD4680BD00BF7D
:104E9C005C090020AC0900206C0900201C090020D2
:104EAC00EC09002088020020002103E00B4B5B582A
:104EBC00435004310A480B4B42189A42F6D30A4A23
:104ECC0002E0002342F8043B084B9A42F9D3FFF767
:104EDC0055FE00F00FF8FFF75DF9704768670008A2
:104EEC00000000205802002058020020200A002058
:104EFC00FEE7000070B500250C4E0D4CA41BA41051
:104F0C00A54209D101F034F900250A4E0A4CA41B24
:104F1C00A410A54205D170BD56F82530984701352F
:104F2C00EEE756F8253098470135F2E76067000840
:104F3C006067000860670008646700080346024465
:104F4C00934200D1704703F8011BF9E70EB44FF4FC
:104F5C00017230B59CB01FAC54F8045BADF8142052
:104F6C0002900690FBF7ECF80B4B03900B9300238D
:104F7C000F9314934FF6FF7307900848ADF8163053
:104F8C002A46234602A90068019400F0E7F91CB0F8
:104F9C00BDE8304003B07047AD4F000888000020DA
:104FAC000020704710B56AB10139841810F8013B24
:104FBC0011F8012F934203D1A04201D0002BF5D15F
:104FCC00981A10BD1046FCE700B59BB000910491F7
:104FDC006FF000410591029105490391694600F07B
:104FEC006DF80022009B1A701BB05DF804FB00BF2B
:104FFC000802FFFF13460A46014602480068FFF705
:10500C00E3BF00BF880000202DE9F0478E68824680
:10501C009E420C469046994637D88A8912F4906F76
:10502C0031D00223256809696F1A656905EB4505BE
:10503C0095FBF3F509F101033B449D4238BF1D4636
:10504C00530530D5294600F0DDFF064650B90C2338
:10505C004FF0FF30CAF80030A38943F04003A3811E
:10506C00BDE8F0873A46216900F05CFFA38923F480
:10507C00906343F08003A38126613E4426604E4634
:10508C006561ED1BA5604E4500D94E463246414642
:10509C00206800F052FFA36800209B1BA3602368CC
:1050AC001E442660DCE72A4601F006F80646002876
:1050BC00E2D12169504600F059FFC8E72DE9F04FC5
:1050CC009DB003938B8980461D060C4616460FD562
:1050DC000B696BB9402100F095FF2060206128B965
:1050EC000C23C8F800304FF0FF30C7E04023636159
:1050FC000023099320238DF8293030234FF0010B26
:10510C008DF82A3037463D4615F8013B0BB1252B5F
:10511C003ED1B7EB060A0BD05346324621464046E9
:10512C00FFF772FF013000F0A480099B53440993F0
:10513C003B78002B00F09D8000234FF0FF32CDE92F
:10514C000523049307938DF853301A932F460522A9
:10515C0017F8011B4F4800F0D7FE049BD0B9D906B5
:10516C0044BF20228DF853201A0744BF2B228DF800
:10517C0053202A782A2A15D02F4600200A25079A70
:10518C00394611F8013B303B092B4DD9B8B10FE032
:10519C002F46B8E73F4A3D46801A0BFA00F01843F9
:1051AC000490D3E7039A111D12680391002A01DBC6
:1051BC00079204E0524243F00203079204933B78B7
:1051CC002E2B0CD17B782A2B33D1039B02371A1D43
:1051DC001B680392002BB8BF4FF0FF3305932E4D85
:1051EC0003223978284600F08FFE38B14023401B4B
:1051FC0003FA00F0049B0137034304933978062229
:10520C0026487E1C8DF8281000F07EFE002838D031
:10521C00234B13BB039B073323F007030833039380
:10522C00099B4B4409936DE705FB023201200F46A5
:10523C00A6E700230A25194601370593384610F8CE
:10524C00012B303A092A03D9002BC8D00591C6E7A7
:10525C0005FB012101230746F0E703AB009322462F
:10526C00104B04A94046AFF30080B0F1FF3F8146DC
:10527C00D6D1A3895B063FF536AF09981DB0BDE8C2
:10528C00F08F03AB00932246064B04A9404600F076
:10529C002BFAEAE7A4650008AA650008AE650008C9
:1052AC00000000001550000838B54B1C144603D103
:1052BC004FF0FF35284638BD9389CDB223F020033B
:1052CC009381636B52688BB1A36B934208DD2368A7
:1052DC005A1E226003F8015C636801336360E9E7DE
:1052EC00214600F0B5FD0028F1D0E1E721692368E3
:1052FC0051B1994208D213F8011CA94204D1013BC7
:10530C00013223606260D5E7C4E90F3204F1440333
:10531C0063630323A363234603F8465F23600123DF
:10532C00DCE710B50C46496B69B104F144039942B2
:10533C0001D000F01BFE0020236C6063636013B18E
:10534C00E36B236010BD23694FF0FF302360002313
:10535C006360A38943F02003A381F3E72DE9F04FA9
:10536C00ADF5257D0193002306460C4692460A278F
:10537C00469347939D4B0DF10C08A2939C4BDFF881
:10538C007492CDF82081A3939AF80030002B00F092
:10539C002A81554600F098FD15F801BB5844437816
:1053AC0013F008031CD06368002B12DD00F08CFD99
:1053BC0023681A7810444278120701D4AA46E3E70E
:1053CC00479A01330132479262682360013A626066
:1053DC00E9E7A39B2146304698470028E6D0EDE745
:1053EC00BBF1250F40F08280459343939AF801302E
:1053FC002A2B03D110230AF102054393AA4615F870
:10540C00011BA1F13002092A22D90322794800F0AC
:10541C007BFD38B1A0EB09030120AA469840439BC1
:10542C00184343909AF800300AF10105672B2BD8EA
:10543C00652B80F09F80472B10D8452B80F09A80ED
:10544C00002B6CD0252B51D003234497499327E094
:10545C00459B07FB0313303B4593CFE75B2B6AD08F
:10546C000CD8582BF0D1439A42F40072439210227C
:10547C0044926E2B8CBF0423032310E0632B65D066
:10548C00642BE1D14497F4E7702B4BD026D86E2BCC
:10549C0062D04CD8692BD7D1002344930323499372
:1054AC006368002B68DD439B590607D400F00CFDA4
:1054BC0023681A7810444278120764D4499B022B53
:1054CC0073DC01AB224643A9304600F01FFA0128D9
:1054DC0000F0898002287FF471AF1DE0752BD1D0CC
:1054EC00782BC0D0732BAFD10223D8E76368002B85
:1054FC000CDD23681A785A4575D101336268236034
:10550C00479B013A01336260479357E7A39B2146BF
:10551C00304698470028ECD04698002859D14FF0D7
:10552C00FF305CE0439A42F0200243929BE7082351
:10553C0044930423B3E72946404600F03FFB439BCA
:10554C00054643F0400343930123A8E7439B43F0F4
:10555C00400343930023A2E74398C3063FF52EAFC5
:10556C00019B479A191D01911B68C0074CBF1A80FB
:10557C001A6023E7052392E7A39B21463046984700
:10558C00002890D0C8E7479A013247926268013AE6
:10559C00002A626002DD0133236087E7A39B21466A
:1055AC0030469847002881D0B6E7042B06DC01ABC7
:1055BC00224643A9304600F00BFA88E70E4B002B2D
:1055CC003FF4FCAE01AB224643A93046AFF300805A
:1055DC007DE7A38913F0400F18BF4FF0FF300DF596
:1055EC00257DBDE8F08F4698F9E700BFB55200085D
:1055FC002F530008AA650008000000002DE9F047B1
:10560C0091461F468A680B6906469342B8BF1346FB
:10561C00C9F8003091F843200C46DDF8208012B117
:10562C000133C9F800302368990642BFD9F800301D
:10563C000233C9F80030256815F0060507D104F1CE
:10564C00190AE368D9F800209B1AAB4229DC94F8BC
:10565C0043302268003318BF012392062ED404F184
:10566C00430239463046C047013021D02368E568F3
:10567C0003F00603042B18BF0025D9F800204FF0C7
:10568C00000908BFAD1AA368226908BF25EAE575B1
:10569C009342C4BF9B1AED181A344D451AD1002001
:1056AC0008E00123524639463046C047013003D149
:1056BC004FF0FF30BDE8F0870135C2E73020E1182C
:1056CC0081F843005A1C94F845102244023382F8A6
:1056DC004310C4E70123224639463046C047013007
:1056EC00E6D009F10109D8E72DE9F04301F1430CAB
:1056FC000C46097E85B06E291746064698460C9ACC
:10570C0000F0B38022D8632936D00AD8002900F0E3
:10571C00B980582900F0838004F1420584F84210C6
:10572C0032E0642901D06929F6D120681368050696
:10573C0003F104012AD51B681160002B03DA2D221A
:10574C005B4284F843206F480A2239E0732900F049
:10575C009D8008D86F2920D07029DDD1236843F0B3
:10576C002003236003E0752917D07829D4D178233E
:10577C00654884F8453055E0136804F14205191D5D
:10578C001B68116084F8423001238CE01B6810F018
:10579C00400F116018BF1BB2CFE713682568181DA6
:1057AC001060280601D51B6802E06806FBD51B8833
:1057BC006F2914BF0A2208225248002184F8431092
:1057CC006568002DA560C0F29580216821F0040168
:1057DC002160002B3DD1002D40F08E806546082ABB
:1057EC000BD12368DB0708D5236962689A42DEBFB8
:1057FC00302305F8013C05F1FF35ACEB05032361C3
:10580C00CDF800803B4603AA21463046FFF7F6FE52
:10581C0001304DD14FF0FF3005B0BDE8F083394871
:10582C0084F84510136821681D1D1B6815600A0655
:10583C000BD5CA0744BF41F0200121601BB9226877
:10584C0022F0200222601022B7E74D0648BF9BB21F
:10585C00EFE76546B3FBF2F102FB1133C35C05F8CD
:10586C00013D0B460029F5D1B9E713682568181DD1
:10587C006169106028061B6801D5196002E06A0690
:10588C00FBD51980002365462361B9E71368191D00
:10589C0011601D6862680021284600F035FB08B1D4
:1058AC00401B606063682361002384F84330A7E7E2
:1058BC0023692A4639463046C0470130AAD02368AE
:1058CC009B0713D4E068039B9842B8BF1846A3E724
:1058DC0001234A4639463046C04701309AD001353B
:1058EC00E368039A9B1AAB42F2DCEBE7002504F168
:1058FC001909F5E7002BACD1037804F1420584F8C3
:10590C0042306CE7B5650008C66500082DE9F0412A
:10591C0015468A6880460C4632B98A69002A14BF3B
:10592C004FF0FF3201228A6000262268D1065FBF49
:10593C001A68111D19601768A369DBB1012B07D117
:10594C002B6862691B78D35CA3B9002E31D106E0B9
:10595C00022B07D0002E2CD1A369012B29D10120B9
:10596C00BDE8F08100F0B0FA2B681B78184443783E
:10597C001B07EFD423680136DA065EBF2B681B7851
:10598C003B702A686B6802F101022A60A26803F17D
:10599C00FF3302F1FF326B6058BF0137A26042B196
:1059AC00002BC9DCD4F880312946404698470028A2
:1059BC00C2D0236813F0100305D1E2680132E26013
:1059CC00A26902B13B70236900201E442661C7E71F
:1059DC002DE9F04F0C469A46744B87B08346164619
:1059EC0093E8070003ABA76883E80700704BA16935
:1059FC00704A04F11C09032908BF1A467B1EB3F533
:105A0C00AE7F84BF40F25D13A360236888BF6FF440
:105A1C00AE7543F45063236098BF00274B464FF09C
:105A2C000008009288BF7F193168019303AB53F8CB
:105A3C0028000222097800F067FA019B30B3B8F114
:105A4C00010F5AD162682AB908212268616042F4B8
:105A5C0000722260226822F4A0622260A268511EA9
:105A6C00A1609AB132685D1C511C316012781A70B9
:105A7C007368013B002B736007DCD4F8803131462E
:105A8C0058469847002840F087802B4608F10108BB
:105A9C00B8F1030FC8D162680AB90A226260626861
:105AAC0045496069891A019300F088F8019B4FF011
:105ABC0000081D46A3682268002B3BD03168606942
:105ACC0091F800C010F80C00002833D0BCF1300F56
