:020000040800F2
:1000000000500020ED2D0008192C00081B2C0008C2
:100010001D2C00081F2C0008212C000800000000E7
:10002000000000000000000000000000232C000879
:10003000252C000800000000272C0008292C0008AF
:10004000352E0008352E0008352E0008352E000804
:10005000352E0008352E0008352E0008352E0008F4
:10006000352E0008352E0008352E0008352E0008E4
:10007000352E0008352E0008352C0008452C0008C8
:10008000352E0008352E0008352E0008352E0008C4
:10009000352E0008352E0008352E0008352E0008B4
:1000A000352E0008352E0008352E0008352E0008A4
:1000B000352E0008552C0008652C0008352E000848
:1000C000352E0008352E0008352E0008352E000884
:1000D000352E0008752C0008852C0008352E0008E8
:1000E000952C0008352E0008352E00080000000071
:1000F0000000000000000000000000000000000000
:0C01000000000000000000005FF808F1A3
:10010C0010B5054C237833B9044B13B10448AFF345
:10011C0000800123237010BD10020020000000009D
:10012C00E038000808B5034B1BB103490348AFF393
:10013C00008008BD0000000014020020E038000818
:10014C0010F8012B11F8013B012A28BF9A42F7D075
:10015C00D01A7047034613F8012B002AFBD1181A4A
:10016C000138704710B504460E4B18784FF47A736B
:10017C00B3FBF0F30C4A1068B0FBF3F000F08CF812
:10018C0068B90F2C01D901200AE0002221464FF05A
:10019C00FF3000F041F8034B5C60002000E00120D0
:1001AC0010BD00BF000000203C00002008B5074A2D
:1001BC00136843F010031360032000F01BF80020B9
:1001CC00FFF7D0FF02F0B2FB002008BD0020024078
:1001DC00034A1168034B1B780B441360704700BF34
:1001EC004402002000000020014B1868704700BF3B
:1001FC0044020020074AD36823F4E0631B041B0C61
:10020C00000200F4E060184340F0BF6040F400309E
:10021C00D060704700ED00E030B4174BDB68C3F3DF
:10022C000223C3F10704042C28BF04241D1D062D32
:10023C0018D9033B4FF0FF3505FA04F421EA040109
:10024C00994005FA03F322EA0303194300280BDB58
:10025C000901C9B200F1604000F5614080F800135B
:10026C0030BC70470023E5E700F00F000901C9B26C
:10027C00024B1954F4E700BF00ED00E014ED00E070
:10028C0000F01F02400901239340024A42F820303B
:10029C00704700BF00E100E00138B0F1807F0AD266
:1002AC00064B5860064AF02182F823100020986013
:1002BC0007221A6070470120704700BF10E000E071
:1002CC0000ED00E0042805D0054A136823F0040370
:1002DC0013607047024A136843F0040313607047BD
:1002EC0010E000E0704708B5FFF7FCFF08BD70B4E4
:1002FC00066CC56B0124B4406C6004686360436891
:10030C00102B05D0036899600368DA6070BC7047E5
:10031C0003689A600368D960F8E70000002830D0C1
:10032C0010B403460168184A0A441848A0FB02029C
:10033C00120992001A64164ADA63022283F8212009
:10034C00086820F47F5020F030005A689C682243E3
:10035C00DC6822431C6922435C6922439C6922436A
:10036C00DC69224302430A6000209862D862186359
:10037C0058639863012283F8212083F8200010BC75
:10038C0070470120704700BFF8FFFDBFCDCCCCCC2F
:10039C000000024038B590F82040012C32D00124E6
:1003AC0080F8204090F82140012C04D0002380F8E4
:1003BC002030022038BD0446022084F821000020A1
:1003CC00A0632568286820F0010028602046FFF70C
:1003DC008EFFE36A5BB12268136843F00E0313606F
:1003EC002268136843F0010313600020E2E72268DF
:1003FC00136823F0040313602268136843F00A03A4
:10040C001360EDE70220D5E708B590F82130022BF8
:10041C0003D004238363012008BD0268136823F012
:10042C000E0313600268136823F001031360036862
:10043C00194A934214D0143293421FD0143293426F
:10044C001ED0143293421ED0143293421ED014325A
:10045C00934202D04FF0807203E04FF4801200E020
:10046C0001220E4B5A60012380F82130002380F8C2
:10047C002030436B6BB198470020CDE71022F0E79A
:10048C004FF48072EDE74FF48052EAE74FF480327C
:10049C00E7E70020C0E700BF080002400000024070
:1004AC0038B5C36B1A6804682568016C04238B404B
:1004BC00134235D015F0040F32D0236813F0200FFF
:1004CC0003D1236823F0040323600368434A934257
:1004DC0014D01432934218D01432934217D01432E1
:1004EC00934217D01432934217D01432934202D055
:1004FC004FF0806203E04FF4800200E00422384B9E
:10050C005A60C36A03B1984738BD4022F7E74FF4ED
:10051C008062F4E74FF48042F1E74FF48022EEE77B
:10052C0002238B4013423CD015F0020F39D02368C4
:10053C0013F0200F06D1236823F00A032360012354
:10054C0080F821300368254A934214D01432934228
:10055C001CD0143293421BD0143293421BD0143251
:10056C0093421BD01432934202D04FF0007203E03E
:10057C004FF4001200E00222194B5A60002380F85D
:10058C002030836A002BBFD09847BDE72022F3E7C9
:10059C004FF40072F0E74FF40052EDE74FF40032E5
:1005AC00EAE7082303FA01F11142ADD015F0080F68
:1005BC00AAD0236823F00E032360026CC16B0123C5
:1005CC0003FA02F24A60836380F82130002380F83A
:1005DC002030036B002B97D0984795E7080002401A
:1005EC0000000240F0B482B000263546A1E0002C99
:1005FC0059D0012C00D1CE68FF2B68D88446FF2B34
:10060C0068D8AC00DCF800200F27A74022EA0702CC
:10061C0006FA04F42243CCF800204A6812F0805FFA
:10062C0000F086805E4A946944F0010494619269FA
:10063C0002F001020192019AAC08A71C594A52F827
:10064C00272005F00307BF004FF00F0C0CFA07FC36
:10065C0022EA0C0C544A904242D002F5806290423D
:10066C007FD002F5806290427DD002F5806290428C
:10067C0034D0042235E04D4FBC4214D00BD94C4F32
:10068C00BC4210D007F58037BC420CD0A7F58017C0
:10069C00BC42B1D107E0A7F58017BC4203D007F5E7
:1006AC008037BC42A8D18C687CB1012C08D0426147
:1006BC000826A1E7CE6808369EE7CE680C369BE785
:1006CC000261082698E7002696E7042694E700F1D5
:1006DC00040C94E7A5F10804A40093E7032200E0BE
:1006EC000022BA4042EA0C0202342E4F47F8242072
:1006FC004A6812F4803F38D02E4C22681A4322608C
:10070C004A6812F4003F36D02A4C62681A43626081
:10071C004A6812F4801F34D0264CA2681A43A26097
:10072C004A6812F4001F32D0224CE2681343E36093
:10073C0001350F2D31D80122AA400B6813409A4283
:10074C00F6D14C68122CB8D095D8022CB2D07FF6CA
:10075C004EAF032CB7D0112C7FF44EAFCE680436BD
:10076C004AE70122BDE70222BBE7124C226822EACB
:10077C0003022260C4E70F4C626822EA0302626043
:10078C00C6E70C4CA26822EA0302A260C8E7094C37
:10079C00E26822EA0303E360CAE702B0F0BC7047E8
:1007AC000010024000000140000801400000211030
:1007BC00000031100004014012B9090401617047B6
:1007CC00016170477047000008B5054B5B69034237
:1007DC0000D108BD024B5861FFF7F4FFF9E700BFE9
:1007EC000004014082B0084B1B68084AA2FB03239B
:1007FC005B0A00FB03F0019000BF019B5A1E0192A3
:10080C00002BF9D102B070473C000020D34D621090
:10081C0070B582B00446036813F0010F2CD0AB4BBB
:10082C005B6803F00C03042B1DD0A84B5B6803F032
:10083C000C03082B12D06368B3F5803F41D0002B1A
:10084C0055D103F1804303F504331A6822F4803246
:10085C001A601A6822F480221A6037E09B4B5B689E
:10086C0013F4803FE7D0994B1B6813F4003F03D07F
:10087C006368002B00F0AE81236813F0020F76D072
:10088C00924B5B6813F00C0F5FD0904B5B6803F0DE
:10089C000C03082B54D02369002B00F08A808C4B5E
:1008AC0001221A60FFF7A0FC0546884B1B6813F069
:1008BC00020F75D1FFF798FC401B0228F5D90320D5
:1008CC008BE1824A136843F480331360636843B34B
:1008DC00FFF78AFC05467D4B1B6813F4003FCBD118
:1008EC00FFF782FC401B6428F5D9032075E1B3F5B2
:1008FC00A02F09D0754B1A6822F480321A601A683E
:10090C0022F480221A60E1E703F18043A3F53C3323
:10091C001A6842F480221A601A6842F480321A6013
:10092C00D4E7FFF761FC0546684B1B6813F4003FE6
:10093C00A2D0FFF759FC401B6428F5D903204CE1E9
:10094C00624B5B6813F4803FA5D1604B1B6813F0BE
:10095C00020F04D02369012B01D001203DE15B4A39
:10096C00136823F0F803616943EAC1031360236839
:10097C0013F0080F32D0A369002B5BD0554B01222A
:10098C001A60FFF731FC0546504B5B6A13F0020FFF
:10099C0021D1FFF729FC401B0228F5D903201CE1CB
:1009AC004A4A136823F0F803616943EAC1031360F0
:1009BC00DDE7474B00221A60FFF716FC0546434B58
:1009CC001B6813F0020FD2D0FFF70EFC401B02285D
:1009DC00F5D9032001E10120FFF704FF236813F090
:1009EC00040F00F09780394BDB6913F0805F33D133
:1009FC00364BDA6942F08052DA61DB6903F08053DE
:100A0C000193019B0125344B1B6813F4807F25D087
:100A1C00E368012B36D0002B4CD103F1804303F556
:100A2C0004331A6A22F001021A621A6A22F00402D2
:100A3C001A622CE0274B00221A60FFF7D5FB054603
:100A4C00224B5B6A13F0020FC8D0FFF7CDFB401BA3
:100A5C000228F5D90320C0E00025D4E71E4A13680C
:100A6C0043F480731360FFF7BFFB06461A4B1B68F9
:100A7C0013F4807FCCD1FFF7B7FB801B6428F5D92A
:100A8C000320AAE0114A136A43F001031362E368DE
:100A9C0073B3FFF7A9FB06460C4B1B6A13F0020F4E
:100AAC0037D1FFF7A1FB801B41F288339842F3D971
:100ABC00032092E0052B11D0044B1A6A22F001029C
:100ACC001A621A6A22F004021A62E0E7001002406D
:100ADC00000042428004424200700040414B1A6ABE
:100AEC0042F004021A621A6A42F001021A62CEE75C
:100AFC00FFF77AFB06463B4B1B6A13F0020F08D03C
:100B0C00FFF772FB801B41F288339842F3D9032024
:100B1C0063E0E5B9E369002B5ED0324A526802F01B
:100B2C000C02082A5BD0022B17D02F4B00221A6024
:100B3C00FFF75AFB04462B4B1B6813F0007F47D082
:100B4C00FFF752FB001B0228F5D9032045E0254A8C
:100B5C00D36923F08053D361DCE7234B00221A6066
:100B6C00FFF742FB05461F4B1B6813F0007F06D0B6
:100B7C00FFF73AFB401B0228F5D903202DE0236A2E
:100B8C00B3F5803F1AD017494B6823F47413226ACB
:100B9C00606A024313434B60134B01221A60FFF748
:100BAC0023FB04460F4B1B6813F0007F0ED1FFF79D
:100BBC001BFB001B0228F5D903200EE0094A5368E1
:100BCC0023F40033A1680B435360DCE7002004E0FE
:100BDC00002002E0012000E0002002B070BD0120E6
:100BEC00FBE700BF001002406000424210B487B027
:100BFC00164C94E80F000DF1180C0CE90F00238A29
:100C0C00ADF80430124B5B6803F00C02082A1AD1C1
:100C1C00C3F38342624412F8102C13F4803F05D1C5
:100C2C000C4800FB02F007B010BC7047084B5B6827
:100C3C00C3F34043634413F8143C074800FB02F031
:100C4C00B0FBF3F0EFE70448EDE700BFF83800081D
:100C5C000010024000093D0000127A00594B1B683D
:100C6C0003F007038B420CD2564A136823F0070398
:100C7C000B431360136803F007038B4201D0012070
:100C8C00704770B5036813F0020F06D04E4A5368D4
:100C9C0023F0F0038468234353600C460546036835
:100CAC0013F0010F52D04368012B23D0022B28D014
:100CBC00454A126812F0020F00F0828042494A68DD
:100CCC0022F0030213434B60FFF78EFA06466B6863
:100CDC00012B1DD0022B2AD03B4B5B6813F00C0F61
:100CEC0034D0FFF781FA801B41F288339842F3D954
:100CFC00032064E0344A126812F4003FDED1012074
:100D0C005DE0314A126812F0007FD7D1012056E025
:100D1C002D4B5B6803F00C03042B17D0FFF764FA20
:100D2C00801B41F288339842F2D9032047E0264BCE
:100D3C005B6803F00C03082B08D0FFF755FA801BF7
:100D4C0041F288339842F2D9032038E01D4B1B68DE
:100D5C0003F00703A3420CD91A4A136823F00703C4
:100D6C0023431360136803F00703A34201D001204F
:100D7C0025E02B6813F0040F06D0134A536823F4B4
:100D8C00E063E9680B4353602B6813F0080F07D03E
:100D9C000D4A536823F46053296943EAC103536035
:100DAC00FFF724FF084B5B68C3F30313074AD35CBC
:100DBC00D840074B18600020FFF7D4F9002070BD15
:100DCC000120FCE700200240001002400C39000812
:100DDC003C000020014B1868704700BF3C0000200D
:100DEC0008B5FFF7F7FF044B5B68C3F30223034A14
:100DFC00D35CD84008BD00BF001002401C3900086D
:100E0C0008B5FFF7E7FF044B5B68C3F3C223034A43
:100E1C00D35CD84008BD00BF001002401C3900084C
:100E2C00F8B505460F4616461C463BE02CB1FFF7BD
:100E3C00DBF9069BC01AA04234D32A68536823F00E
:100E4C00E00353606B68B3F5827F0BD0AB6AB3F5EC
:100E5C00005F14D0012385F85130002385F8503001
:100E6C00032027E0AB68B3F5004F02D0B3F5806FD9
:100E7C00ECD12A68136823F040031360E6E72A6874
:100E8C00136823F400531B041B0C13602A681368AB
:100E9C0043F400531360DDE70123B34209D0B4F1EE
:100EAC00FF3FC3D12B689B6837EA0303F4D00023C0
:100EBC00F3E70020F8BD10B582B0044600920B4653
:100ECC0000228021FFF7ACFF034610B9184602B090
:100EDC0010BD636D43F0200363650323F6E72DE932
:100EEC00F04184B01E4690F85030012B00F0C880C1
:100EFC0004460D469046012380F85030FFF774F9F4
:100F0C00074694F85130DBB2012B0AD002230122A0
:100F1C0084F85120002284F85020184604B0BDE813
:100F2C00F081002D00F0A480B8F1000F00F0A28039
:100F3C00032384F85130002363652563A4F83480BF
:100F4C00A4F83680A363A387E38763642364A36850
:100F5C00B3F5004F1BD023681A6812F0400F03D171
:100F6C001A6842F040021A60E368B3F5006F14D0BF
:100F7C0063681BB1E38E9BB2012B3ED1236815F83D
:100F8C00012B1A73E38E013B9BB2E38635E022689A
:100F9C00136843F480431360DDE763681BB1E38E91
:100FAC009BB2012B0DD1236835F8022BDA60E38E4E
:100FBC00013B9BB2E38604E0002E5DD0B6F1FF3F0F
:100FCC000FD1E38E9BB27BB323689A6812F0020FA9
:100FDC00F2D035F8022BDA60E38E013B9BB2E3864C
:100FEC00EFE7FFF701F9C01BB042EAD303238EE70A
:100FFC00002E43D0B6F1FF3F0FD1E38E9BB29BB1D5
:10100C0023689A6812F0020FF2D015F8012B1A73AC
:10101C00E38E013B9BB2E386EFE7FFF7E5F8C01BDD
:10102C00B042EAD3032372E7009733460122022130
:10103C002046FFF7F5FE08B1032368E73A46314630
:10104C002046FFF738FF034618B1202363650123C0
:10105C005DE7A26832B903922268D1680391926865
:10106C000392039A626D002A3FF451AF01234EE7BD
:10107C0001234CE701234AE7032348E7032346E710
:10108C0002234AE700283CD010B5044600238362B3
:10109C0090F85130002B31D0022384F85130226863
:1010AC00136823F0400313606368A2681343E2687B
:1010BC0013432269134362691343A26902F4007259
:1010CC001343E2691343226A1343A16A22680B4358
:1010DC001360638B03F00403616A22680B43536053
:1010EC002368E26A1A612268D36923F40063D3612E
:1010FC0000206065012384F8513010BD01F066FCBE
:10110C00CAE701207047000070B4036A23F00103A2
:10111C000362036A4268846924F073040D6845EA2B
:10112C00040623F002048B6823430D4DA84209D01A
:10113C000B4DA8420DD0426086614A68426303623F
:10114C0070BC704723F00803CC68234323F00403DE
:10115C00EEE722F440724C6914438A692243EAE7B1
:10116C00002C014030B4036A23F480730362036AD9
:10117C004268C46924F073040D682C4323F4007393
:10118C008D6843EA05230F4DA84209D00D4DA842A6
:10119C000ED04260C4614A68C263036230BC7047BF
:1011AC0023F40063CD6843EA052323F48063EDE761
:1011BC0022F440524D6942EA05128D6942EA051249
:1011CC00E7E700BF002C014030B4036A23F48053DE
:1011DC000362036A4468C26922F4E6420D6842EA7B
:1011EC00052223F400538D6843EA0533074DA842CA
:1011FC0006D04460C2614A680264036230BC704726
:10120C0024F480444D6944EA8514F2E7002C014033
:10121C0010B4036A046A24F001040462846924F0A3
:10122C00F00444EA021223F00A030B4382610362C6
:10123C0010BC704710B4036A23F010030362846976
:10124C00036A24F4704444EA023223F0A00343EA14
:10125C0001138261036210BC7047836823F0700332
:10126C0041F0070119438160704710B4846824F47D
:10127C007F4442EA03230B432343836010BC704733
:10128C00022380F83D300268136843F001031360B9
:10129C00012380F83D30002070470268D36843F08A
:1012AC000103D3600268136843F00103136000204C
:1012BC00704790F83C30012B7DD010B504460123CB
:1012CC0080F83C30022380F83D300268936823F4A8
:1012DC007F4323F0770393600B68402B57D010D9D2
:1012EC00702B3ED01FD8502B47D0602B32D1CA6800
:1012FC0049680068FFF79EFF60212068FFF7ADFF8B
:10130C0028E0102B4DD008D9202B4FD0302B21D1D9
:10131C0030210068FFF7A1FF1CE0DBB90021006859
:10132C00FFF79BFF16E0B3F5805F0ED0B3F5005FBF
:10133C0010D1CB684A6889680068FFF796FF22686D
:10134C00936843F48043936004E00268936823F04D
:10135C0007039360012384F83D30002084F83C009F
:10136C0010BDCB684A6889680068FFF77EFF226869
:10137C00936843F077039360ECE7CA6849680068A8
:10138C00FFF746FF50212068FFF767FFE2E7CA68C6
:10139C0049680068FFF73CFF40212068FFF75DFFBC
:1013AC00D8E710210068FFF758FFD3E72021006829
:1013BC00FFF753FFCEE70220704770477047704726
:1013CC00704710B5044603681A6912F0020F11D069
:1013DC00DA6812F0020F0DD06FF002021A610123CD
:1013EC00037703689B6913F0030F70D0FFF7E6FFD8
:1013FC000023237723681A6912F0040F12D0DA68DD
:10140C0012F0040F0ED06FF004021A61022323773E
:10141C0023689B6913F4407F5FD02046FFF7CEFF13
:10142C000023237723681A6912F0080F12D0DA68A8
:10143C0012F0080F0ED06FF008021A610423237704
:10144C002368DB6913F0030F4ED02046FFF7B6FF7D
:10145C000023237723681A6912F0100F12D0DA6870
:10146C0012F0100F0ED06FF010021A6108232377C0
:10147C002368DB6913F4407F3DD02046FFF79EFFC5
:10148C000023237723681A6912F0010F03D0DA685E
:10149C0012F0010F36D123681A6912F0800F03D0B5
:1014AC00DA6812F0800F34D123681A6912F0400FF9
:1014BC0003D0DA6812F0400F32D123681A6912F0A7
:1014CC00200F03D0DA6812F0200F30D110BDFFF7D7
:1014DC0074FF2046FFF773FF8AE72046FFF76DFF86
:1014EC002046FFF76CFF9BE72046FFF766FF204680
:1014FC00FFF765FFACE72046FFF75FFF2046FFF7DD
:10150C005EFFBDE76FF001021A61204601F058F84A
:10151C00C1E76FF080021A61204600F06BF9C3E757
:10152C006FF040021A612046FFF74AFFC5E76FF0E3
:10153C0020021A61204600F05CF9C7E703681B4AD9
:10154C0090420AD0B0F1804F07D0A2F5943290426D
:10155C0003D002F58062904203D123F070034A68F5
:10156C001343124A90420AD0B0F1804F07D0A2F533
:10157C009432904203D002F58062904203D123F45E
:10158C004073CA68134323F080034A691343036012
:10159C008B68C3620B688362044B984202D00123B0
:1015AC00436170470B690363F9E700BF002C0140EE
:1015BC00A8B110B5044690F83D305BB1022384F815
:1015CC003D30211D2068FFF7B9FF012384F83D3021
:1015DC00002010BD80F83C3001F01CFAEEE7012031
:1015EC007047A8B110B5044690F83D305BB10223AA
:1015FC0084F83D30211D2068FFF7A0FF012384F8FB
:10160C003D30002010BD80F83C3001F033FAEEE79D
:10161C000120704730B4036A23F010030362036A9D
:10162C004468826922F4E6420D6842EA052223F0FE
:10163C0020038D6843EA05130E4DA84209D00D4DC9
:10164C00A8420ED0446082614A688263036230BC57
:10165C00704723F08003CD6843EA051323F0400361
:10166C00EDE724F440644D6944EA85048D6944EA4D
:10167C008504E7E7002C014038B590F83C30012B8D
:10168C0066D00D460446012380F83C30022380F8D6
:10169C003D300C2A1AD8DFE802F007191919201965
:1016AC0019193419191947000068FFF72DFD226824
:1016BC00936943F0080393612268936923F0040350
:1016CC0093612268936929690B439361012384F820
:1016DC003D30002084F83C0038BD0068FFF79AFFCD
:1016EC002268936943F4006393612268936923F43D
:1016FC008063936122689369296943EA01239361AA
:10170C00E4E70068FFF72EFD2268D36943F0080375
:10171C00D3612268D36923F00403D3612268D369AF
:10172C0029690B43D361D1E70068FFF74DFD2268AF
:10173C00D36943F40063D3612268D36923F48063D3
:10174C00D3612268D369296943EA0123D361BDE7D8
:10175C000220C1E710B4012303FA01F4036A23EA5F
:10176C0004030362036A8A401343036210BC70478C
:10177C0010B5044601220068FFF7ECFF2368074A06
:10178C00934206D02268136843F0010313600020D3
:10179C0010BD5A6C42F400425A64F3E7002C01402D
:1017AC0090F83C30012B22D030B4012280F83C2040
:1017BC00022380F83D300468636823F07003636093
:1017CC00046863680D682B4363600468A36823F0A6
:1017DC008003A3600468A36849680B43A36080F886
:1017EC003D20002380F83C30184630BC7047022066
:1017FC007047704770470268D36823F0C003D3600A
:10180C00202380F8393070470268D36823F4907332
:10181C00D3600268536923F001035361202380F8DD
:10182C003A30704790F83930DBB2212B2AD18368DB
:10183C00B3F5805F16D0036A5A1C02621A780368EB
:10184C005A60C38C013B9BB2C384EBB90268D3686A
:10185C0023F08003D3600268D36843F04003D36065
:10186C0000207047036A1B880268C3F308035360A7
:10187C0003691BB9036A02330362E2E7036A0133AB
:10188C000362DEE702207047002070472DE9F84321
:10189C0005460268136923F44053C1680B43136176
:1018AC00836802691343426913430168CA6822F4CE
:1018BC00B05222F00C021343CB600268536923F43C
:1018CC00407381690B4353610268594B9A4257D05C
:1018DC00FFF786FA00EB800000EB80006C68A40038
:1018EC00B0FBF4F4534FA7FB043464092601FFF753
:1018FC0077FA00EB800000EB80006C68A400B0FB72
:10190C00F4F9FFF76DFA00EB800000EB80006C68D7
:10191C00A400B0FBF4F4A7FB043464094FF0640892
:10192C0008FB149424013234A7FB0434640904F03A
:10193C00F0043444FFF754FA00EB800000EB800015
:10194C006E68B600B0FBF6F6FFF74AFA00EB8000C3
:10195C0000EB80006B689B00B0FBF3F0A7FB003042
:10196C00400908FB10684FEA081808F13208A7FB79
:10197C000837C7F343172B6827449F60BDE8F883EB
:10198C00FFF73EFA00EB800000EB80006C68A400CF
:10199C00B0FBF4F4274FA7FB043464092601FFF7CE
:1019AC002FFA00EB800000EB80006C68A400B0FB09
:1019BC00F4F9FFF725FA00EB800000EB80006C686F
:1019CC00A400B0FBF4F4A7FB043464094FF06408E2
:1019DC0008FB149424013234A7FB0434640904F08A
:1019EC00F0043444FFF70CFA00EB800000EB8000AD
:1019FC006E68B600B0FBF6F6FFF702FA00EB80005B
:101A0C0000EB80006B689B00B0FBF3F0A7FB003091
:101A1C00400908FB10684FEA081808F13208A7FBC8
:101A2C000837C7F343172B6827449F60A6E700BF0E
:101A3C00003801401F85EB5158B310B5044690F89F
:101A4C0039300BB3242384F839302268D36823F45B
:101A5C000053D3602046FFF719FF2268136923F463
:101A6C00904313612268536923F02A03536122685F
:101A7C00D36843F40053D3600020E063202384F840
:101A8C00393084F83A3010BD80F8383001F02AF83B
:101A9C00D8E70120704790F83930DBB2202B16D1F3
:101AAC00B9B1C2B190F83830012B16D001628284E2
:101ABC00C2840023C363212280F8392080F8383097
:101ACC000168CA6842F08002CA601846704702205A
:101ADC00704701207047012070470220704790F832
:101AEC003A30DBB2202B20D109B312B390F8383046
:101AFC00012B20D081628285C2850023C363222200
:101B0C0080F83A2080F838300168CA6842F4807254
:101B1C00CA6001684A6942F001024A610168CA68F8
:101B2C0042F02002CA60184670470220704701201C
:101B3C0070470120704702207047000038B590F8BC
:101B4C003940E4B2202C31D1002931D0002A31D0D7
:101B5C0090F83830012B2FD013460446012280F820
:101B6C00382001628384C3840025C563212280F858
:101B7C003920026B11489062226B1148D062226BA3
:101B8C0010481063226B556322680432206BFEF7F9
:101B9C0001FC23686FF040021A6084F83850226808
:101BAC00536943F080035361284600E0022038BD9E
:101BBC000120FCE70120FAE70220F8E77D1C000871
:101BCC00C91C0008BB1D000830B583B090F83A4022
:101BDC00E4B2202C3DD100293ED0002A3ED090F812
:101BEC003830012B3CD013460A460446012180F8BC
:101BFC003810826283850025C563222180F83A1053
:101C0C00416B18488862616B1748C862616B174852
:101C1C000863616B4D6321680431606BFEF7BAFB9E
:101C2C00019523681A6801925A680192019A84F806
:101C3C003850DA6842F48072DA602268536943F0F3
:101C4C00010353612268536943F0400353612846F2
:101C5C0000E0022003B030BD0120FBE70120F9E7D2
:101C6C000220F7E7D31C0008AF1D0008BB1D0008BD
:101C7C0008B5436A0268126812F0200F0CD10022DA
:101C8C00DA8419684A6922F080024A611A68D368BA
:101C9C0043F04003D36008BD184600F069FCFAE736
:101CAC0008B50168CB6823F04003CB60202380F893
:101CBC00393000F05DFC002008BD704708B5406A63
:101CCC00FFF7FBFF08BD08B5436A0268126812F003
:101CDC00200F13D10022DA851968CA6822F48072A9
:101CEC00CA6019684A6922F001024A6119684A6996
:101CFC0022F040024A61202283F83A20184600F074
:101D0C0015FC08BD08B590F83A30DBB2222B45D152
:101D1C008368B3F5805F0ED0036903BB03685A6810
:101D2C00836A591C81621A70C38D013B9BB2C385B7
:101D3C00F3B1002033E0826A036943B903685B683E
:101D4C00C3F308031380836A02338362ECE70368EE
:101D5C005B68DBB21380836A01338362E4E7036858
:101D6C005B68826A511C816203F07F031370DBE7AE
:101D7C000268D36823F02003D3600268D36823F48D
:101D8C008073D3600268536923F0010353612023ED
:101D9C0080F83A3000F0CAFB002000E0022008BDB9
:101DAC00704708B5406AFFF7FBFF08BD704710B5D8
:101DBC00446A23685A6994F83930DBB2212B10D06D
:101DCC0023685A6902F0400294F83A30DBB2222BB5
:101DDC0011D0E36B43F01003E3632046FFF7E6FFFB
:101DEC0010BD02F08002002AEAD00023E3842046D2
:101DFC00FFF701FDE4E7002AEBD00023E385204642
:101E0C00FFF702FDE5E7000010B504460268136811
:101E1C00D168526913F00F0005D113F0200F02D0D6
:101E2C0011F0200F53D1002867D012F0010202D11B
:101E3C0011F4907F61D013F0010F06D011F4807F64
:101E4C0003D0E06B40F00100E06313F0040F04D00A
:101E5C001AB1E06B40F00200E06313F0020F04D003
:101E6C001AB1E06B40F00400E06313F0080F04D0EB
:101E7C001AB1E26B42F00802E263E26B002A48D02E
:101E8C0013F0200F02D011F0200F24D123685B69CE
:101E9C0003F04003E26B12F0080F00D13BB3204675
:101EAC00FFF7B2FC23685A6912F0400F1BD05A6935
:101EBC0022F040025A61636B8BB11A4A5A63606B11
:101ECC00FEF7A2FA28B3606B436B984721E02046DB
:101EDC00FFF718FF1DE02046FFF714FFD6E720465A
:101EEC00FFF764FF15E02046FFF760FF11E0204686
:101EFC00FFF75CFF0023E3630BE013F0800F02D0CD
:101F0C0011F0800F06D113F0400F02D011F0400FEA
:101F1C0004D110BD2046FFF785FCFAE72046FFF7F9
:101F2C00BFFEF6E7351F000808B5406A0023C385DD
:101F3C00C384FFF73BFF08BD044B00225A62034BDE
:101F4C005B6A9BB28342FAD9704700BF002C0140F8
:101F5C0008B5084B084A1A60586000229A60DA608B
:101F6C001A610C2159619A61DA611846FFF764FD18
:101F7C0008BD00BF400400200038014070B582B09D
:101F8C0002ADF02305F8013D4FF41650FFF7E0FFCA
:101F9C000124074B1C70074E224629463046FFF79A
:101FAC00CDFD224604493046FFF70EFE02B070BD4F
:101FBC002C02002040040020590200202DE9F04F93
:101FCC0093B0424B1B78013B032B33D8DFE803F073
:101FDC00021C354C3E4B1B78F02B2BD04FF4E130D0
:101FEC00FFF7B6FF3B4C10223B492046FFF7A6FDFE
:101FFC00012237492046FFF7E7FD344B02221A70C5
:10200C005E20FFF799FF15E012ACF02304F8013DB8
:10201C004FF41650FFF79CFF2E4D01222146284607
:10202C00FFF78CFD01222A492846FFF7CDFD274BEF
:10203C0003221A7013B0BDE8F08F254B1B78F02BE0
:10204C00F8D04FF4E130FFF783FF224C20222349D4
:10205C002046FFF773FD102221492046FFF7B4FDFF
:10206C001A4B04221A70E5E71D4A13780E93507828
:10207C000F909378D178107954799579D679177A1D
:10208C0092F809C092F80AE092F80B8092F80C9042
:10209C0092F80DA092F80EB0D27B0C92CDF82CB029
:1020AC00CDF828A0CDF82490CDF82080CDF81CE0F8
:1020BC00CDF818C0059704960395029401900091F1
:1020CC000F9A0E99074800F091F8B3E72C02002004
:1020DC0059020020400400200800002018000020B5
:1020EC0048020020283A000830B589B02A4B9A697A
:1020FC0042F010029A619A6902F010020092009A62
:10210C009A6942F020029A619A6902F020020192C7
:10211C00019A9A6942F004029A619A6902F00402E7
:10212C000292029A9A6942F008029A619B6903F042
:10213C0008030393039B194D00224FF4806128463A
:10214C00FEF73AFB4FF400530493154B0593002410
:10215C00069404A92846FEF745FA20230493059417
:10216C00069404A90F48FEF73DFA4FF480630493DC
:10217C001123059306940223079304A92846FEF71E
:10218C0031FA224621462820FEF746F82820FEF791
:10219C0077F809B030BD00BF0010024000100140BC
:1021AC00000011100008014000B583B00E4B5A69B5
:1021BC0042F001025A615B6903F001030193019B38
:1021CC00002211460E20FEF727F80E20FEF758F8D5
:1021DC00002211460F20FEF71FF80F20FEF750F8D3
:1021EC0003B05DF804FB00BF001002400FB410B543
:1021FC00A4B026AA52F8041B029204A800F036FFE1
:10220C00244B1B78DBB20393002400E0013404A8B8
:10221C00FDF7A0FFA0420FD9039B24AA224412F879
:10222C00801C1D4AD154039B01330393039BFF2B4A
:10223C00ECDD00230393E9E772B6164B1A78D2B2A1
:10224C005B78DBB29A4209D0039BDBB2114A137064
:10225C0062B624B0BDE8104004B070470F4B1B6849
:10226C001B6813F0800FEFD0039AD2B2094B1A708F
:10227C005A78D2B208498A5C24A901F8892D5A7877
:10228C000132D2B25A705B7801220448FFF703FC8A
:10229C00DEE700BF2E02002018060020D804002024
:1022AC0030B583B00378002B00F0998004460146CA
:1022BC004D48FFF79BFF4D49204600F0DBFD0546DE
:1022CC004B49FDF73DFF0446A0B14A492846FDF7AE
:1022DC0037FF044600285ED047492846FDF730FFFB
:1022EC00002877D1454B01229A707BE0444B0022A9
:1022FC001A700134032C0DDC3C49002000F0BAFDAF
:10230C000028F3D00A22002100F084FE3D4B43F854
:10231C002400EEE73A4B1B7873B33A4B18680F283E
:10232C0026D85B68FF2B1FD8364A9268FF2A17D82D
:10233C003449C968FF290FD88DF804308DF8052071
:10234C008DF80610019980B200F0E0FC00F03AFD27
:10235C002D48FFF74BFF45E02C48FFF747FF41E0C6
:10236C002B48FFF743FF3DE02A48FFF73FFF39E0DA
:10237C002948FFF73BFF35E02848FFF737FF204B94
:10238C0001221A702EE00A22002100F043FE1D4BA0
:10239C0043F824000134012C09DC1449002000F01E
:1023AC0069FD0028EFD1164B00221A70F2E7154B8D
:1023BC005868642816D81A681949CB6A03FB02F3CB
:1023CC005A1C184BB3FBF2F3013B8B6200234B629C
:1023DC00486307E029461448FFF708FF02E013485A
:1023EC00FFF704FF03B030BD5C3A0008603A000808
:1023FC00643A0008883B0008903B00082E0200203D
:10240C0038000020840400206C3A0008943A00083C
:10241C00C83A0008FC3A0008303B0008643B00084E
:10242C00000400400048E801983B0008B83B000855
:10243C00094BDA78D2B21B79DBB29A420AD0064A3F
:10244C00D378DBB20549C85CD3780133DBB2D370E7
:10245C00D3787047FF2070472E020020180500200B
:10246C00002303E0044A0021D15401337F2BF9DD12
:10247C00024B00221A607047F402002080040020F6
:10248C0008B5264BDA78D2B21B79DBB29A420CD063
:10249C00FFF7CEFF224B1B6800225A621F4B5B7961
:1024AC00032B23D0042B09D003B108BD2F28FCD15A
:1024BC00FFF7D6FF194B04225A71F6E72F2808D0E4
:1024CC00DB280FD0174A13681749C854013313601F
:1024DC00EBE71548FFF7E4FEFFF7C2FF0F4B0422B2
:1024EC005A71E2E70D4B03225A71DEE7DC2805D066
:1024FC00DD280BD0094B04225A71D6E7094A136820
:10250C0009492F20C85401331360F3E7054A1368B7
:10251C000549DB20C85401331360EBE72E02002081
:10252C00B402002080040020F402002010B5044600
:10253C000B4B984203D00B4B9C420ED010BD0A4A59
:10254C0013790133DBB21371137913790122074923
:10255C0019440348FFF7C3FAEDE7FFF72FFDEDE74A
:10256C00D8040020400400202E0200201805002072
:10257C00104B834200D070470F4B1A78D2B25B7865
:10258C00DBB29A42F7D000B583B00B4A5378DBB27A
:10259C000A49CB5C02A901F8013D53780133DBB247
:1025AC005370537801220348FFF775FA03B05DF8B6
:1025BC0004FB00BFD80400202E02002018060020C7
:1025CC000C4B834200D070470B4B1B681B6813F0FD
:1025DC00100FF8D0094B5B79042BF4D1074A93798F
:1025EC000133DBB29371022BEDD9134600229A71A1
:1025FC005A71E8E7B4020020D80400202E02002013
:10260C00FEE7000008B50B480B4B03604FF4165364
:10261C00436000238360C36003610C2242618361C9
:10262C00C361FFF709FA00B908BD40F24321034822
:10263C00FFF7E6FFD804002000440040D83B000818
:10264C0000B587B01848194B036020234360002362
:10265C0083606722C26003618361FEF7A9FF98B9AA
:10266C0006A94FF4805341F8103D0F48FEF721FEA8
:10267C0078B900230093019369460B48FFF790F853
:10268C0060B907B05DF804FB4FF404710848FFF71C
:10269C00B7FF40F216210648FFF7B2FF40F21D21AA
:1026AC000348FFF7ADFF00BFB40200200008004054
:1026BC00D83B000808B51048104B03604FF48273E8
:1026CC004360002383604FF40062C2600361436186
:1026DC004FF4007282611022C26103624362836212
:1026EC000A23C362FEF7CEFC00B908BD4FF4DA71C1
:1026FC000348FFF785FF00BF5C0200200038004054
:10270C00D83B000800B58BB01A481B4B0360202344
:10271C004360002383606322C26003618361FEF720
:10272C0060FFC0B900230893099308A91148FFF76B
:10273C0037F8A8B960230193002202920392059204
:10274C0001A90C48FEF798FF78B90A4800F0B2F9D5
:10275C000BB05DF804FB4FF4F5710848FFF750FF20
:10276C0040F2F1110548FFF74BFF4FF4FD710348A0
:10277C00FFF746FF7403002000040040D83B00081C
:10278C0000B587B019481A4B03604FF4FA43436005
:10279C00002383604FF6FF72C26003614361836163
:1027AC00FEF706FF98B906A94FF4805341F8103D87
:1027BC000E48FEF77EFD78B900230093019369461D
:1027CC000A48FEF7EDFF60B907B05DF804FB40F274
:1027DC00C9110848FFF714FF40F2CF110548FFF765
:1027EC000FFF4FF4EB710348FFF70AFF980400202A
:1027FC00002C0140D83B000808B50B480B4B03607C
:10280C004FF41653436000238360C36003610C22B2
:10281C0042618361C361FFF70FF900B908BD4FF442
:10282C000C710348FFF7ECFE400400200038014017
:10283C00D83B000800B591B00223069301220A92FE
:10284C0010220B920D9300230E934FF4C0130F9391
:10285C0006A8FDF7DDFF00BB0F23019302230293B3
:10286C000023039304930593012101A8FEF7F6F9C5
:10287C00C0B9FEF7AFFA0E4BA3FB00308009FDF791
:10288C000BFD0420FDF71EFD002211464FF0FF301A
:10289C00FDF7C2FC11B05DF804FB4FF4C2710548A2
:1028AC00FFF7AEFE4FF4C9710248FFF7A9FE00BF57
:1028BC00D34D6210D83B000808B5FDF777FCFFF745
:1028CC00B9FFFFF711FCFFF76FFCFFF79BFEFFF75B
:1028DC00B7FEFFF7EFFEFFF715FFFFF751FFFFF70E
:1028EC008BFF00F0FDF90B4B1B7901220A491944AF
:1028FC000A48FFF7F4F800210948FEF739FF0948A8
:10290C00FEF7CBFC0848FEF7BBFCFFF737FBFFF7E5
:10291C00B7FDFCE72E02002018050020D80400208B
:10292C0074030020B40200209804002000B583B08A
:10293C00244B9A6942F001029A619A6902F00102F1
:10294C000092009ADA6942F08052DA61DB6903F096
:10295C0080530193019B0320FDF74CFC0022114690
:10296C006FF00B00FDF758FC002211466FF00A00C7
:10297C00FDF752FC002211466FF00900FDF74CFCEC
:10298C00002211466FF00400FDF746FC00221146B0
:10299C006FF00300FDF740FC002211466FF00100C0
:1029AC00FDF73AFC002211464FF0FF30FDF734FCE6
:1029BC00054A536823F0E06343F00073536003B09F
:1029CC005DF804FB001002400000014002680F4B50
:1029DC009A4200D0704700B587B003F5EC33DA6942
:1029EC0042F48042DA61DB6903F480430193019B7A
:1029FC004FF420430293022303930323059302A96C
:102A0C000348FDF7EFFD07B05DF804FB003800400C
:102A1C00000C014000B583B00368134A934205D003
:102A2C00124A93420DD003B05DF804FB104B9A6927
:102A3C0042F400629A619B6903F400630093009B6B
:102A4C00F1E70B4BDA6942F00402DA61DB6903F05F
:102A5C0004030193019B002211461E20FDF7DCFBB1
:102A6C001E20FDF70DFCDEE7002C014000080040A5
:102A7C000010024002680E4B9A4200D0704700B51D
:102A8C0083B003F50333DA6942F00202DA61DB69E1
:102A9C0003F002030193019B002211461D20FDF758
:102AAC00BBFB1D20FDF7ECFB03B05DF804FB00BF86
:102ABC00000400400268094B9A4200D0704700B5F0
:102ACC0085B0402300930223019303936946044885
:102ADC00FDF788FD05B05DF804FB00BF0004004065
:102AEC000008014070B586B003683F4A934204D099
:102AFC003E4A93425BD006B070BD04463C4B9A698B
:102B0C0042F480429A619B6903F480430093009BDA
:102B1C004FF4007302930223039303230593354E62
:102B2C0002A93046FDF75EFD4FF480630293002549
:102B3C000395049502A93046FDF754FD2E482F4B02
:102B4C000360456085608023C360056145618561D4
:102B5C00C561FDF7E3FBF0B9274B63635C62284862
:102B6C00284B036010234360002383608022C260E3
:102B7C00036143618361C361FDF7D0FB88B9204BCE
:102B8C0023635C62002211462520FDF745FB2520BE
:102B9C00FDF776FBAFE740F233111B48FFF730FD32
:102BAC00DAE740F243111848FFF72AFDE7E7104B2C
:102BBC00DA6942F40032DA61DB6903F40033019321
:102BCC00019B0C23029302230393059302A909484A
:102BDC00FDF708FD002211462620FDF71DFB2620DF
:102BEC00FDF74EFB87E700BF003801400044004072
:102BFC000010024000080140FC0300205800024075
:102C0C00B403002044000240E83B00087047FEE794
:102C1C00FEE7FEE7FEE770477047704708B5FDF723
:102C2C00D7FAFDF760FB08BD08B50248FDF738FC84
:102C3C0008BD00BFB403002008B50248FDF730FC06
:102C4C0008BD00BFFC03002008B50248FEF7B9FB25
:102C5C0008BD00BF7403002008B50248FEF7B1FBA5
:102C6C0008BD00BFB402002008B50248FFF7CCF83D
:102C7C0008BD00BF4004002008B50248FFF7C4F8A7
:102C8C0008BD00BFD804002008B54FF40050FDF774
:102C9C009BFD08BD0F4B1A6842F001021A6059687F
:102CAC000D4A0A405A601A6822F0847222F480326B
:102CBC001A601A6822F480221A605A6822F4FE0202
:102CCC005A604FF41F029A60044B4FF000629A60F6
:102CDC00704700BF001002400000FFF800ED00E05C
:102CEC0008B5002303E0074A0821D1540133B3F59A
:102CFC00C07FF8DB4FF47A73C02202490248FEF71A
:102D0C00EEF808BD180700205C020020F0B482B079
:102D1C00C1F30722294B9C5CC1F307429A5CC9B2F0
:102D2C00595C0F2847D8072308E000EB400503EB5C
:102D3C00C505234E082777556408013B002B0ADB99
:102D4C0014F0010FF1D000EB400503EBC5051C4E50
:102D5C000E277755F0E70F2308E000EB400403EB58
:102D6C00C404174D08262E554908013B072B0ADDD4
:102D7C0011F0010FF1D000EB400403EBC404104D33
:102D8C000E262E55F0E7172308E000EB400103EB6D
:102D9C00C1010B4C082565545208013B0F2B0ADD71
:102DAC0012F0010FF1D000EB400103EBC101044C18
:102DBC000E256554F0E702B0F0BC704724390008CA
:102DCC001807002008B54FF47A73C0220249034853
:102DDC00FEF785F808BD00BF180700205C02002034
:102DEC00002103E00B4B5B58435004310A480B4B5A
:102DFC0042189A42F6D30A4A02E0002342F8043BF6
:102E0C00084B9A42F9D3FFF745FF00F00FF8FFF794
:102E1C0053FD70474C3D00080000002010020020BC
:102E2C00100200209C080020FEE7000070B5002571
:102E3C000C4E0D4CA41BA410A54209D100F04AFD68
:102E4C0000250A4E0A4CA41BA410A54205D170BD46
:102E5C0056F8253098470135EEE756F82530984757
:102E6C000135F2E7443D0008443D0008443D0008AC
:102E7C00483D0008134B2DE9F0411D680646AC6D2A
:102E8C000F46B4B9502000F0FFF8A865C0E9004423
:102E9C00C0E90244C0E90444C0E90A44C0E90C4456
:102EAC00C0E90E44C0E91044C0E9124484610477BF
:102EBC004462AA6D39463046BDE8F041012300F06A
:102ECC0003B800BF40000020F0B518B9106808B96D
:102EDC00F0BD204604460F4614F8015B17F8016B51
:102EEC001EB96DB915602846F2E7B542F6D1002B34
:102EFC00EFD114600370EBE72B460DE026B91C46AE
:102F0C0023460F4613F8015B17F8016BB542F5D158
:102F1C00002DF1D0002121701360D9E72DE9F04785
:102F2C008046894692461E460F463D46089815F83F
:102F3C00014B00F0A5F82044437813F0080332D17C
:102F4C002D2C32D101227C78BD1C002E5DD0102E90
:102F5C0009D1302C07D12B7803F0DF03582B4FD13C
:102F6C0010266C780235002A14BF4FF000416FF028
:102F7C0000410027B1FBF6FC384606FB1C1EA4F1F1
:102F8C003003092B17D81C46A64223DD7B1C07D027
:102F9C0084451CD301D1A64519DB012700FB064053
:102FAC0015F8014BEBE72F46BFE72B2C04BFBD1CDC
:102FBC007C781A46C9E7A4F14103192B01D8373C98
:102FCC00E2E7A4F16103192B04D8573CDCE74FF07E
:102FDC00FF37E5E77B1C08D122230846C8F80030F0
:102FEC00BAF1000F07D1BDE8F08702B14042BAF147
:102FFC00000FF8D00FB105F1FF39CAF80090F2E7D5
:10300C003024002EAFD10826ADE7302CA3D00A26F1
:10301C00A9E70000084B37B51C68084D236A002B44
:10302C0008BF2B46009313460A4601462046FFF77D
:10303C0075FF03B030BD00BF40000020A40000208D
:10304C0000B59BB0009104916FF000410591029185
:10305C0005490391694600F031F90022009B1A7072
:10306C001BB05DF804FB00BF0802FFFF13460A46C5
:10307C00014602480068FFF7E3BF00BF4000002094
:10308C00D0F8EC0070470000024B0146186800F0C5
:10309C0061B800BF4000002082B001B901A942B163
:1030AC004BB113780B601278101C18BF012002B0C2
:1030BC0070471046FBE76FF00100F8E738B505469E
:1030CC00002943D051F8043C0C1F002BB8BFE41866
:1030DC0000F0C1FB1E4A1368104633B963601460DC
:1030EC002846BDE8384000F0B7BBA3420BD9216895
:1030FC006218934201BF1A685B68521822606360C1
:10310C000460EDE713465A680AB1A242FAD919686D
:10311C005818A0420BD120680144581882421960FB
:10312C00DED110685268014419605A60D8E702D9A0
:10313C000C232B60D4E7206821188A4201BF116848
:10314C0052680918216062605C60C9E738BD00BF35
:10315C003802002070B5CD1C25F0030508350C2D68
:10316C0038BF0C25002D064601DBA94203D90C23E0
:10317C003360002070BD00F06EFB214A14682146BC
:10318C0091B9204C23681BB9304600F015FB206028
:10319C002946304600F010FB431C24D10C2330464A
:1031AC00336000F059FBE4E70B685B1B18D40B2B66
:1031BC000FD90B60CC18CD50304600F04DFB04F10C
:1031CC000B00231D20F00700C31AD3D05A42E25043
:1031DC00D0E74B688C4216BF636013600C46EBE77C
:1031EC000C464968CCE7C41C24F00304A04205D06B
:1031FC00211A304600F0E0FA0130CFD02560DBE731
:10320C00380200203C0200202DE9F0478E688246EF
:10321C009E420C469046994637D88A8912F4906F94
:10322C0031D00223256809696F1A656905EB4505DC
:10323C0095FBF3F509F101033B449D4238BF1D4654
:10324C00530530D52946FFF785FF064650B90C23A8
:10325C004FF0FF30CAF80030A38943F04003A3813C
:10326C00BDE8F0873A46216900F0D1FAA38923F42E
:10327C00906343F08003A38126613E4426604E4652
:10328C006561ED1BA5604E4500D94E463246414660
:10329C00206800F0C7FAA36800209B1BA36023687A
:1032AC001E442660DCE72A4600F0D7FA06460028C2
:1032BC00E2D121695046FFF701FFC8E72DE9F04F35
:1032CC009DB003938B8980461D060C4616460FD580
:1032DC000B696BB94021FFF73DFF2060206128B9D5
:1032EC000C23C8F800304FF0FF30C7E04023636177
:1032FC000023099320238DF8293030234FF0010B44
:10330C008DF82A3037463D4615F8013B0BB1252B7D
:10331C003ED1B7EB060A0BD0534632462146404607
:10332C00FFF772FF013000F0A480099B534409930E
:10333C003B78002B00F09D8000234FF0FF32CDE94D
:10334C000523049307938DF853301A932F460522C7
:10335C0017F8011B4F4800F04CFA049BD0B9D90662
:10336C0044BF20228DF853201A0744BF2B228DF81E
:10337C0053202A782A2A15D02F4600200A25079A8E
:10338C00394611F8013B303B092B4DD9B8B10FE050
:10339C002F46B8E73F4A3D46801A0BFA00F0184317
:1033AC000490D3E7039A111D12680391002A01DBE4
:1033BC00079204E0524243F00203079204933B78D5
:1033CC002E2B0CD17B782A2B33D1039B02371A1D61
:1033DC001B680392002BB8BF4FF0FF3305932E4DA3
:1033EC0003223978284600F004FA38B14023401BF8
:1033FC0003FA00F0049B0137034304933978062247
:10340C0026487E1C8DF8281000F0F3F9002838D0DF
:10341C00234B13BB039B073323F00703083303939E
:10342C00099B4B4409936DE705FB023201200F46C3
:10343C00A6E700230A25194601370593384610F8EC
:10344C00012B303A092A03D9002BC8D00591C6E7C5
:10345C0005FB012101230746F0E703AB009322464D
:10346C00104B04A94046AFF30080B0F1FF3F8146FA
:10347C00D6D1A3895B063FF536AF09981DB0BDE8E0
:10348C00F08F03AB00932246064B04A9404600F094
:10349C0081F8EAE70E3C0008143C0008183C0008D0
:1034AC0000000000153200082DE9F04791461F4638
:1034BC008A680B6906469342B8BF1346C9F80030B8
:1034CC0091F843200C46DDF8208012B10133C9F885
:1034DC0000302368990642BFD9F800300233C9F88E
:1034EC000030256815F0060507D104F1190AE368C8
:1034FC00D9F800209B1AAB4229DC94F8433022689F
:10350C00003318BF012392062ED404F1430239462E
:10351C003046C047013021D02368E56803F006032C
:10352C00042B18BF0025D9F800204FF0000908BF64
:10353C00AD1AA368226908BF25EAE5759342C4BF9A
:10354C009B1AED181A344D451AD1002008E00123BE
:10355C00524639463046C047013003D14FF0FF3058
:10356C00BDE8F0870135C2E73020E11881F843004F
:10357C005A1C94F845102244023382F84310C4E7D5
:10358C000123224639463046C0470130E6D009F1C6
:10359C000109D8E72DE9F04301F1430C0C46097EF3
:1035AC0085B06E291746064698460C9A00F0B380F3
:1035BC0022D8632936D00AD8002900F0B9805829BE
:1035CC0000F0838004F1420584F8421032E0642953
:1035DC0001D06929F6D120681368050603F10401AE
:1035EC002AD51B681160002B03DA2D225B4284F86C
:1035FC0043206F480A2239E0732900F09D8008D8D7
:10360C006F2920D07029DDD1236843F0200323607B
:10361C0003E0752917D07829D4D17823654884F82C
:10362C00453055E0136804F14205191D1B68116003
:10363C0084F8423001238CE01B6810F0400F1160BD
:10364C0018BF1BB2CFE713682568181D1060280639
:10365C0001D51B6802E06806FBD51B886F2914BFD7
:10366C000A2208225248002184F843106568002D74
:10367C00A560C0F29580216821F004012160002B27
:10368C003DD1002D40F08E806546082A0BD1236871
:10369C00DB0708D5236962689A42DEBF302305F840
:1036AC00013C05F1FF35ACEB05032361CDF800803F
:1036BC003B4603AA21463046FFF7F6FE01304DD1BA
:1036CC004FF0FF3005B0BDE8F083394884F8451061
:1036DC00136821681D1D1B6815600A060BD5CA07E7
:1036EC0044BF41F0200121601BB9226822F0200266
:1036FC0022601022B7E74D0648BF9BB2EFE7654644
:10370C00B3FBF2F102FB1133C35C05F8013D0B4630
:10371C000029F5D1B9E713682568181D6169106097
:10372C0028061B6801D5196002E06A06FBD51980D2
:10373C00002365462361B9E71368191D11601D68E4
:10374C0062680021284600F054F808B1401B606004
:10375C0063682361002384F84330A7E723692A4672
:10376C0039463046C0470130AAD023689B0713D492
:10377C00E068039B9842B8BF1846A3E701234A466A
:10378C0039463046C04701309AD00135E368039A78
:10379C009B1AAB42F2DCEBE7002504F11909F5E7C3
:1037AC00002BACD1037804F1420584F842306CE76D
:1037BC001F3C0008303C000838B50023054C05467A
:1037CC000846236000F078F8431C02D1236803B14B
:1037DC002B6038BD9808002049B1FF2A8BBF8A2383
:1037EC000A700360012088BF4FF0FF307047084615
:1037FC00704710B5C9B202449042034601D1002370
:10380C0003E01C7801308C42F6D1184610BD10B57F
:10381C00431E0A44914200D110BD11F8014B03F82C
:10382C00014FF7E7884210B501EB020307D8421E9F
:10383C0099420AD011F8014B02F8014FF8E7834284
:10384C00F5D98118D21AD34200D110BD13F8014D0D
:10385C0001F8014DF7E770477047F8B50746144675
:10386C000E4621B9BDE8F8401146FFF773BC22B9EA
:10387C00FFF724FC25462846F8BD00F014F8A042BA
:10388C000FD221463846FFF765FC05460028F2D0DA
:10389C0031462246FFF7BBFF31463846FFF70EFC98
:1038AC00E9E73546E7E751F8043C181F002BBCBF8D
:1038BC000B58C01870470000044A05491368002BC8
:1038CC0008BF0B4618441060184670474002002091
:1038DC00A0080020F8B500BFF8BC08BC9E46704795
:0C38EC00F8B500BFF8BC08BC9E46704751
:1038F80002030405060708090A0B0C0D0E0F101029
:1039080001020000000000000000000001020304A2
:103918000607080900000000010203040000000077
:10392800000000000000000000000000000000008F
:103938000000000000000000010101010101010177
:103948000101010101020202020202020203030351
:103958000303030304040404040505050506060619
:1039680006070707070808080909090A0A0A0B0BC6
:103978000B0C0C0D0D0D0E0E0F0F10101111121255
:10398800131314141515161617181819191A1B1BC2
:103998001C1D1D1E1F202021222323242526272706
:1039A80028292A2B2C2D2E2F30313232333436371A
:1039B80038393A3B3C3D3E3F4042434445464849FE
:1039C8004A4B4D4E4F515253555657595A5C5D5FAD
:1039D800606263656668696B6D6E7072737577781F
:1039E8007A7C7E7F81838587898A8C8E9092949653
:1039F800989A9C9EA0A2A4A7A9ABADAFB1B4B6B843
:103A0800BABDBFC1C4C6C8CBCDD0D2D5D7DADCDFEA
:103A1800E1E4E7E9ECEFF1F4F7F9FCFF0E08000048
:103A28002558202558202558202558202558202558
:103A38005820255820255820255820255820255815
:103A48002025582025582025582025582025580A53
:103A58000D000000257300003A0000007365746CC7
:103A680065640000506F6C6563656E6965207365F9
:103A7800746C65642077796B6F6E616E6520706F0A
:103A8800707261776E69650A0D000000506172619D
:103A98006D6574722034207720706F6C6563656E75
:103AA8006975207365746C6564206A657374206E2B
:103AB8006965706F707261776E790A0D0000000099
:103AC800506172616D6574722033207720706F6C5D
:103AD8006563656E6975207365746C6564206A65D5
:103AE8007374206E6965706F707261776E790A0DF4
:103AF80000000000506172616D6574722032207799
:103B080020706F6C6563656E6975207365746C658C
:103B180064206A657374206E6965706F707261776E
:103B28006E790A0D00000000506172616D65747253
:103B38002031207720706F6C6563656E697520731E
:103B480065746C6564206A657374206E6965706F4E
:103B5800707261776E790A0D000000004E69652069
:103B6800706F64616E6F2077737A7973746B6963B1
:103B78006820706172616D6574726F770A0D00005C
:103B880070756C73650000007A6D6965727A000063
:103B98004E6965206F646E616C657A696F6E6F201F
:103BA800706F6C6563656E69612025730A0D00008E
:103BB8005779736C616C65732070757374612072CA
:103BC800616D6B6520676F736369750A0D0000008E
:103BD8002E2E2F5372632F6D61696E2E63000000C5
:103BE8002E2E2F5372632F73746D333266317878AB
:103BF8005F68616C5F6D73702E6300004300504F07
:103C0800534958002E00232D302B2000686C4C009F
:103C180065666745464700303132333435363738C4
:103C28003941424344454600303132333435363722
:103C380038396162636465660000202020202020F6
:103C48002020202828282828202020202020202044
:103C58002020202020202020202088101010101044
:103C68001010101010101010101004040404040494
:103C78000404040410101010101010414141414177
:103C880041010101010101010101010101010101DC
:103C9800010101010110101010101042424242426D
:103CA80042020202020202020202020202020202AC
:103CB8000202020202101010102000000000000092
:103CC80000000000000000000000000000000000EC
:103CD80000000000000000000000000000000000DC
:103CE80000000000000000000000000000000000CC
:103CF80000000000000000000000000000000000BC
:103D080000000000000000000000000000000000AB
:103D1800000000000000000000000000000000009B
:103D2800000000000000000000000000000000008B
:0C3D38000000000000000000000000007F
:043D44003101000841
:043D48000D01000861
:103D4C000100000010000000FFFF0000FFFF00005A
:103D5C0000FF000000FF0000FFFF0000FFFF00005D
:103D6C00FF00FFFFFFFFFF00FFFFFFFFFFFFFFFF55
:103D7C00FFFFFFFFFFFFFFFF0100000000A24A044E
:103D8C0044000020000000000000000000000000C3
:103D9C000000000000000000000000000000000017
:103DAC000000000000000000000000000000000007
:103DBC0000000000000000000000000000000000F7
:103DCC0000000000000000000000000000000000E7
:103DDC0000000000000000000000000000000000D7
:103DEC000000000043000000000000000000000084
:103DFC0000000000000000000000000000000000B7
:103E0C000000000043000000000000000000000063
:103E1C000000000000000000000000000000000096
:103E2C000000000043000000000000000000000043
:103E3C000000000000000000000000000000000076
:103E4C000000000043000000000000000000000023
:103E5C000000000000000000000000000000000056
:103E6C000000000043000000000000000000000003
:103E7C000000000000000000000000000000000036
:103E8C0000000000430000000000000000000000E3
:103E9C000000000000000000000000000000000016
:103EAC0000000000430000000000000000000000C3
:103EBC0000000000000000000000000000000000F6
:103ECC0000000000E5370008A530000800000000E5
:103EDC00413C00080C3C0008133C0008133C000853
:103EEC00133C0008133C0008133C0008133C00086A
:103EFC00133C0008133C0008133C0008FFFFFFFFB5
:103F0C00FFFFFFFFFFFFFFFFFFFF0000010041531A
:103F1C0043494900000000000000000000000000C0
:103F2C0000000000000000000000000000004153F1
:103F3C0043494900000000000000000000000000A0
:103F4C000000000000000000000000000000000065
:0400000508002DEDD5
:00000001FF
